{
  "contractName": "ChainlinkTest",
  "abi": [
    {
      "inputs": [],
      "stateMutability": "nonpayable",
      "type": "constructor"
    },
    {
      "anonymous": false,
      "inputs": [
        {
          "indexed": true,
          "internalType": "bytes32",
          "name": "id",
          "type": "bytes32"
        }
      ],
      "name": "ChainlinkCancelled",
      "type": "event"
    },
    {
      "anonymous": false,
      "inputs": [
        {
          "indexed": true,
          "internalType": "bytes32",
          "name": "id",
          "type": "bytes32"
        }
      ],
      "name": "ChainlinkFulfilled",
      "type": "event"
    },
    {
      "anonymous": false,
      "inputs": [
        {
          "indexed": true,
          "internalType": "bytes32",
          "name": "id",
          "type": "bytes32"
        }
      ],
      "name": "ChainlinkRequested",
      "type": "event"
    },
    {
      "anonymous": false,
      "inputs": [
        {
          "indexed": true,
          "internalType": "address",
          "name": "from",
          "type": "address"
        },
        {
          "indexed": true,
          "internalType": "address",
          "name": "to",
          "type": "address"
        }
      ],
      "name": "OwnershipTransferRequested",
      "type": "event"
    },
    {
      "anonymous": false,
      "inputs": [
        {
          "indexed": true,
          "internalType": "address",
          "name": "from",
          "type": "address"
        },
        {
          "indexed": true,
          "internalType": "address",
          "name": "to",
          "type": "address"
        }
      ],
      "name": "OwnershipTransferred",
      "type": "event"
    },
    {
      "anonymous": false,
      "inputs": [
        {
          "indexed": true,
          "internalType": "bytes32",
          "name": "requestId",
          "type": "bytes32"
        },
        {
          "indexed": false,
          "internalType": "uint256",
          "name": "volume",
          "type": "uint256"
        }
      ],
      "name": "RequestVolume",
      "type": "event"
    },
    {
      "inputs": [],
      "name": "acceptOwnership",
      "outputs": [],
      "stateMutability": "nonpayable",
      "type": "function"
    },
    {
      "inputs": [],
      "name": "owner",
      "outputs": [
        {
          "internalType": "address",
          "name": "",
          "type": "address"
        }
      ],
      "stateMutability": "view",
      "type": "function",
      "constant": true
    },
    {
      "inputs": [
        {
          "internalType": "address",
          "name": "to",
          "type": "address"
        }
      ],
      "name": "transferOwnership",
      "outputs": [],
      "stateMutability": "nonpayable",
      "type": "function"
    },
    {
      "inputs": [],
      "name": "volume",
      "outputs": [
        {
          "internalType": "uint256",
          "name": "",
          "type": "uint256"
        }
      ],
      "stateMutability": "view",
      "type": "function",
      "constant": true
    },
    {
      "inputs": [],
      "name": "requestVolumeData",
      "outputs": [
        {
          "internalType": "bytes32",
          "name": "requestId",
          "type": "bytes32"
        }
      ],
      "stateMutability": "nonpayable",
      "type": "function"
    },
    {
      "inputs": [
        {
          "internalType": "bytes32",
          "name": "_requestId",
          "type": "bytes32"
        },
        {
          "internalType": "uint256",
          "name": "_volume",
          "type": "uint256"
        }
      ],
      "name": "fulfillRequestVolumeData",
      "outputs": [],
      "stateMutability": "nonpayable",
      "type": "function"
    },
    {
      "inputs": [],
      "name": "withdrawLink",
      "outputs": [],
      "stateMutability": "nonpayable",
      "type": "function"
    }
  ],
  "bytecode": "0x608060405260016004553480156200001657600080fd5b50338060008073ffffffffffffffffffffffffffffffffffffffff168273ffffffffffffffffffffffffffffffffffffffff16036200008c576040517f08c379a00000000000000000000000000000000000000000000000000000000081526004016200008390620003d3565b60405180910390fd5b81600660006101000a81548173ffffffffffffffffffffffffffffffffffffffff021916908373ffffffffffffffffffffffffffffffffffffffff160217905550600073ffffffffffffffffffffffffffffffffffffffff168173ffffffffffffffffffffffffffffffffffffffff161462000114576200011381620001b960201b60201c565b5b5050506200013c73326c977e6efc84e512bb9c30f76e30c160ed06fb620002ea60201b60201c565b6200016173cc79157eb46f5624204f47ab42b3906caa40eab76200032e60201b60201c565b7f6361393833363663633733313439353762386330313263373266303561656562600981905550600a670de0b6b3a76400006001620001a191906200042e565b620001ad9190620004a8565b600a8190555062000552565b3373ffffffffffffffffffffffffffffffffffffffff168173ffffffffffffffffffffffffffffffffffffffff16036200022a576040517f08c379a0000000000000000000000000000000000000000000000000000000008152600401620002219062000530565b60405180910390fd5b80600760006101000a81548173ffffffffffffffffffffffffffffffffffffffff021916908373ffffffffffffffffffffffffffffffffffffffff1602179055508073ffffffffffffffffffffffffffffffffffffffff16600660009054906101000a900473ffffffffffffffffffffffffffffffffffffffff1673ffffffffffffffffffffffffffffffffffffffff167fed8889f560326eb138920d842192f0eb3dd22b4f139c87a2c57538e05bae127860405160405180910390a350565b80600260006101000a81548173ffffffffffffffffffffffffffffffffffffffff021916908373ffffffffffffffffffffffffffffffffffffffff16021790555050565b80600360006101000a81548173ffffffffffffffffffffffffffffffffffffffff021916908373ffffffffffffffffffffffffffffffffffffffff16021790555050565b600082825260208201905092915050565b7f43616e6e6f7420736574206f776e657220746f207a65726f0000000000000000600082015250565b6000620003bb60188362000372565b9150620003c88262000383565b602082019050919050565b60006020820190508181036000830152620003ee81620003ac565b9050919050565b6000819050919050565b7f4e487b7100000000000000000000000000000000000000000000000000000000600052601160045260246000fd5b60006200043b82620003f5565b91506200044883620003f5565b92508282026200045881620003f5565b91508282048414831517620004725762000471620003ff565b5b5092915050565b7f4e487b7100000000000000000000000000000000000000000000000000000000600052601260045260246000fd5b6000620004b582620003f5565b9150620004c283620003f5565b925082620004d557620004d462000479565b5b828204905092915050565b7f43616e6e6f74207472616e7366657220746f2073656c66000000000000000000600082015250565b60006200051860178362000372565b91506200052582620004e0565b602082019050919050565b600060208201905081810360008301526200054b8162000509565b9050919050565b611ecd80620005626000396000f3fe608060405234801561001057600080fd5b506004361061007d5760003560e01c80638dc654a21161005b5780638dc654a2146100c8578063c618a1e4146100d2578063ed643f1a146100f0578063f2fde38b1461010c5761007d565b80636021abac1461008257806379ba5097146100a05780638da5cb5b146100aa575b600080fd5b61008a610128565b604051610097919061137a565b60405180910390f35b6100a861027f565b005b6100b2610416565b6040516100bf91906113d6565b60405180910390f35b6100d0610440565b005b6100da61058d565b6040516100e7919061140a565b60405180910390f35b61010a60048036038101906101059190611482565b610593565b005b610126600480360381019061012191906114ee565b6106dd565b005b60008061013f6009543063ed643f1a60e01b6106f1565b90506101a36040518060400160405280600381526020017f6765740000000000000000000000000000000000000000000000000000000000815250604051806080016040528060508152602001611e4860509139836107229092919063ffffffff16565b6102226040518060400160405280600481526020017f70617468000000000000000000000000000000000000000000000000000000008152506040518060400160405280600381526020017f5f5f760000000000000000000000000000000000000000000000000000000000815250836107229092919063ffffffff16565b61026d6040518060400160405280600581526020017f74696d65730000000000000000000000000000000000000000000000000000008152506001836107559092919063ffffffff16565b61027981600a54610788565b91505090565b600760009054906101000a900473ffffffffffffffffffffffffffffffffffffffff1673ffffffffffffffffffffffffffffffffffffffff163373ffffffffffffffffffffffffffffffffffffffff161461030f576040517f08c379a000000000000000000000000000000000000000000000000000000000815260040161030690611578565b60405180910390fd5b6000600660009054906101000a900473ffffffffffffffffffffffffffffffffffffffff16905033600660006101000a81548173ffffffffffffffffffffffffffffffffffffffff021916908373ffffffffffffffffffffffffffffffffffffffff1602179055506000600760006101000a81548173ffffffffffffffffffffffffffffffffffffffff021916908373ffffffffffffffffffffffffffffffffffffffff1602179055503373ffffffffffffffffffffffffffffffffffffffff168173ffffffffffffffffffffffffffffffffffffffff167f8be0079c531659141344cd1fd0a4f28419497f9722a3daafe3b4186f6b6457e060405160405180910390a350565b6000600660009054906101000a900473ffffffffffffffffffffffffffffffffffffffff16905090565b6104486107bf565b6000610452610851565b90508073ffffffffffffffffffffffffffffffffffffffff1663a9059cbb338373ffffffffffffffffffffffffffffffffffffffff166370a08231306040518263ffffffff1660e01b81526004016104aa91906113d6565b602060405180830381865afa1580156104c7573d6000803e3d6000fd5b505050506040513d601f19601f820116820180604052508101906104eb91906115ad565b6040518363ffffffff1660e01b81526004016105089291906115da565b6020604051808303816000875af1158015610527573d6000803e3d6000fd5b505050506040513d601f19601f8201168201806040525081019061054b919061163b565b61058a576040517f08c379a0000000000000000000000000000000000000000000000000000000008152600401610581906116b4565b60405180910390fd5b50565b60085481565b816005600082815260200190815260200160002060009054906101000a900473ffffffffffffffffffffffffffffffffffffffff1673ffffffffffffffffffffffffffffffffffffffff163373ffffffffffffffffffffffffffffffffffffffff1614610635576040517f08c379a000000000000000000000000000000000000000000000000000000000815260040161062c90611746565b60405180910390fd5b6005600082815260200190815260200160002060006101000a81549073ffffffffffffffffffffffffffffffffffffffff0219169055807f7cc135e0cebb02c3480ae5d74d377283180a2601f8f644edf7987b009316c63a60405160405180910390a2827f673b38182859a514d734bdfcb49d3a05c4a641dec9311d9894c9717bcb79af76836040516106c8919061140a565b60405180910390a26001600881905550505050565b6106e56107bf565b6106ee8161087b565b50565b6106f96112da565b6107016112da565b610718858585846109a9909392919063ffffffff16565b9150509392505050565b610739828460800151610a5990919063ffffffff16565b610750818460800151610a5990919063ffffffff16565b505050565b61076c828460800151610a5990919063ffffffff16565b610783818460800151610a7e90919063ffffffff16565b505050565b60006107b7600360009054906101000a900473ffffffffffffffffffffffffffffffffffffffff168484610b2b565b905092915050565b600660009054906101000a900473ffffffffffffffffffffffffffffffffffffffff1673ffffffffffffffffffffffffffffffffffffffff163373ffffffffffffffffffffffffffffffffffffffff161461084f576040517f08c379a0000000000000000000000000000000000000000000000000000000008152600401610846906117b2565b60405180910390fd5b565b6000600260009054906101000a900473ffffffffffffffffffffffffffffffffffffffff16905090565b3373ffffffffffffffffffffffffffffffffffffffff168173ffffffffffffffffffffffffffffffffffffffff16036108e9576040517f08c379a00000000000000000000000000000000000000000000000000000000081526004016108e09061181e565b60405180910390fd5b80600760006101000a81548173ffffffffffffffffffffffffffffffffffffffff021916908373ffffffffffffffffffffffffffffffffffffffff1602179055508073ffffffffffffffffffffffffffffffffffffffff16600660009054906101000a900473ffffffffffffffffffffffffffffffffffffffff1673ffffffffffffffffffffffffffffffffffffffff167fed8889f560326eb138920d842192f0eb3dd22b4f139c87a2c57538e05bae127860405160405180910390a350565b6109b16112da565b6109c18560800151610100610bf7565b508385600001818152505082856020019073ffffffffffffffffffffffffffffffffffffffff16908173ffffffffffffffffffffffffffffffffffffffff16815250508185604001907bffffffffffffffffffffffffffffffffffffffffffffffffffffffff191690817bffffffffffffffffffffffffffffffffffffffffffffffffffffffff191681525050849050949350505050565b610a668260038351610c61565b610a798183610de690919063ffffffff16565b505050565b7fffffffffffffffffffffffffffffffffffffffffffffffff0000000000000000811215610ab557610ab08282610e08565b610b27565b67ffffffffffffffff811315610ad457610acf8282610e7f565b610b26565b60008112610aed57610ae882600083610c61565b610b25565b610b24826001837fffffffffffffffffffffffffffffffffffffffffffffffffffffffffffffffff610b1f9190611877565b610c61565b5b5b5b5050565b6000806004549050600181610b4091906118ba565b6004819055506000634042994660e01b60008087600001513089604001518760018c6080015160000151604051602401610b819897969594939291906119b9565b604051602081830303815290604052907bffffffffffffffffffffffffffffffffffffffffffffffffffffffff19166020820180517bffffffffffffffffffffffffffffffffffffffffffffffffffffffff83818316178352505050509050610bec86838684610ecb565b925050509392505050565b610bff611347565b6000602083610c0e9190611a6d565b14610c3a57602082610c209190611a6d565b6020610c2c9190611a9e565b82610c3791906118ba565b91505b81836020018181525050604051808452600081528281016020016040525082905092915050565b60178167ffffffffffffffff1611610c9857610c928160058460ff16901b60ff16178461106090919063ffffffff16565b50610de1565b60ff8167ffffffffffffffff1611610cee57610cc7601860058460ff16901b178461106090919063ffffffff16565b50610ce88167ffffffffffffffff166001856110809092919063ffffffff16565b50610de0565b61ffff8167ffffffffffffffff1611610d4557610d1e601960058460ff16901b178461106090919063ffffffff16565b50610d3f8167ffffffffffffffff166002856110809092919063ffffffff16565b50610ddf565b63ffffffff8167ffffffffffffffff1611610d9e57610d77601a60058460ff16901b178461106090919063ffffffff16565b50610d988167ffffffffffffffff166004856110809092919063ffffffff16565b50610dde565b610dbb601b60058460ff16901b178461106090919063ffffffff16565b50610ddc8167ffffffffffffffff166008856110809092919063ffffffff16565b505b5b5b5b505050565b610dee611347565b610e00838460000151518485516110a2565b905092915050565b610e2660036005600660ff16901b178361106090919063ffffffff16565b50610e7b82827fffffffffffffffffffffffffffffffffffffffffffffffffffffffffffffffff610e579190611877565b604051602001610e67919061140a565b604051602081830303815290604052611191565b5050565b610e9d60026005600660ff16901b178361106090919063ffffffff16565b50610ec78282604051602001610eb3919061140a565b604051602081830303815290604052611191565b5050565b60003084604051602001610ee0929190611b8b565b604051602081830303815290604052805190602001209050846005600083815260200190815260200160002060006101000a81548173ffffffffffffffffffffffffffffffffffffffff021916908373ffffffffffffffffffffffffffffffffffffffff160217905550807fb5e6e01e79f91267dc17b4e6314d5d4d03593d2ceee0fbb452b750bd70ea5af960405160405180910390a2600260009054906101000a900473ffffffffffffffffffffffffffffffffffffffff1673ffffffffffffffffffffffffffffffffffffffff16634000aea08685856040518463ffffffff1660e01b8152600401610fd693929190611bb7565b6020604051808303816000875af1158015610ff5573d6000803e3d6000fd5b505050506040513d601f19601f82011682018060405250810190611019919061163b565b611058576040517f08c379a000000000000000000000000000000000000000000000000000000000815260040161104f90611c67565b60405180910390fd5b949350505050565b611068611347565b61107883846000015151846111b6565b905092915050565b611088611347565b61109984856000015151858561120c565b90509392505050565b6110aa611347565b82518211156110b857600080fd5b846020015182856110c991906118ba565b11156110fe576110fd8560026110ee886020015188876110e991906118ba565b61129a565b6110f89190611c87565b6112b6565b5b60008086518051876020830101935080888701111561111d5787860182525b60208701925050505b60208410611164578051825260208261113f91906118ba565b915060208161114e91906118ba565b905060208461115d9190611a9e565b9350611126565b60006001856020036101000a03905080198251168184511681811785525050508692505050949350505050565b61119e8260028351610c61565b6111b18183610de690919063ffffffff16565b505050565b6111be611347565b836020015183106111e4576111e384600286602001516111de9190611c87565b6112b6565b5b835180516020858301018481538186036111ff576001820183525b5050508390509392505050565b611214611347565b8460200151848361122591906118ba565b111561124d5761124c856002868561123d91906118ba565b6112479190611c87565b6112b6565b5b600060018361010061125f9190611dfc565b6112699190611a9e565b9050855183868201018583198251161781528151858801111561128c5784870182525b505085915050949350505050565b6000818311156112ac578290506112b0565b8190505b92915050565b6000826000015190506112c98383610bf7565b506112d48382610de6565b50505050565b6040518060a0016040528060008019168152602001600073ffffffffffffffffffffffffffffffffffffffff16815260200160007bffffffffffffffffffffffffffffffffffffffffffffffffffffffff1916815260200160008152602001611341611347565b81525090565b604051806040016040528060608152602001600081525090565b6000819050919050565b61137481611361565b82525050565b600060208201905061138f600083018461136b565b92915050565b600073ffffffffffffffffffffffffffffffffffffffff82169050919050565b60006113c082611395565b9050919050565b6113d0816113b5565b82525050565b60006020820190506113eb60008301846113c7565b92915050565b6000819050919050565b611404816113f1565b82525050565b600060208201905061141f60008301846113fb565b92915050565b600080fd5b61143381611361565b811461143e57600080fd5b50565b6000813590506114508161142a565b92915050565b61145f816113f1565b811461146a57600080fd5b50565b60008135905061147c81611456565b92915050565b6000806040838503121561149957611498611425565b5b60006114a785828601611441565b92505060206114b88582860161146d565b9150509250929050565b6114cb816113b5565b81146114d657600080fd5b50565b6000813590506114e8816114c2565b92915050565b60006020828403121561150457611503611425565b5b6000611512848285016114d9565b91505092915050565b600082825260208201905092915050565b7f4d7573742062652070726f706f736564206f776e657200000000000000000000600082015250565b600061156260168361151b565b915061156d8261152c565b602082019050919050565b6000602082019050818103600083015261159181611555565b9050919050565b6000815190506115a781611456565b92915050565b6000602082840312156115c3576115c2611425565b5b60006115d184828501611598565b91505092915050565b60006040820190506115ef60008301856113c7565b6115fc60208301846113fb565b9392505050565b60008115159050919050565b61161881611603565b811461162357600080fd5b50565b6000815190506116358161160f565b92915050565b60006020828403121561165157611650611425565b5b600061165f84828501611626565b91505092915050565b7f556e61626c6520746f207472616e736665720000000000000000000000000000600082015250565b600061169e60128361151b565b91506116a982611668565b602082019050919050565b600060208201905081810360008301526116cd81611691565b9050919050565b7f536f75726365206d75737420626520746865206f7261636c65206f662074686560008201527f2072657175657374000000000000000000000000000000000000000000000000602082015250565b600061173060288361151b565b915061173b826116d4565b604082019050919050565b6000602082019050818103600083015261175f81611723565b9050919050565b7f4f6e6c792063616c6c61626c65206279206f776e657200000000000000000000600082015250565b600061179c60168361151b565b91506117a782611766565b602082019050919050565b600060208201905081810360008301526117cb8161178f565b9050919050565b7f43616e6e6f74207472616e7366657220746f2073656c66000000000000000000600082015250565b600061180860178361151b565b9150611813826117d2565b602082019050919050565b60006020820190508181036000830152611837816117fb565b9050919050565b6000819050919050565b7f4e487b7100000000000000000000000000000000000000000000000000000000600052601160045260246000fd5b60006118828261183e565b915061188d8361183e565b92508282039050818112600084121682821360008512151617156118b4576118b3611848565b5b92915050565b60006118c5826113f1565b91506118d0836113f1565b92508282019050808211156118e8576118e7611848565b5b92915050565b60007fffffffff0000000000000000000000000000000000000000000000000000000082169050919050565b611923816118ee565b82525050565b600081519050919050565b600082825260208201905092915050565b60005b83811015611963578082015181840152602081019050611948565b60008484015250505050565b6000601f19601f8301169050919050565b600061198b82611929565b6119958185611934565b93506119a5818560208601611945565b6119ae8161196f565b840191505092915050565b6000610100820190506119cf600083018b6113c7565b6119dc602083018a6113fb565b6119e9604083018961136b565b6119f660608301886113c7565b611a03608083018761191a565b611a1060a08301866113fb565b611a1d60c08301856113fb565b81810360e0830152611a2f8184611980565b90509998505050505050505050565b7f4e487b7100000000000000000000000000000000000000000000000000000000600052601260045260246000fd5b6000611a78826113f1565b9150611a83836113f1565b925082611a9357611a92611a3e565b5b828206905092915050565b6000611aa9826113f1565b9150611ab4836113f1565b9250828203905081811115611acc57611acb611848565b5b92915050565b6000819050919050565b6000611af7611af2611aed84611395565b611ad2565b611395565b9050919050565b6000611b0982611adc565b9050919050565b6000611b1b82611afe565b9050919050565b60008160601b9050919050565b6000611b3a82611b22565b9050919050565b6000611b4c82611b2f565b9050919050565b611b64611b5f82611b10565b611b41565b82525050565b6000819050919050565b611b85611b80826113f1565b611b6a565b82525050565b6000611b978285611b53565b601482019150611ba78284611b74565b6020820191508190509392505050565b6000606082019050611bcc60008301866113c7565b611bd960208301856113fb565b8181036040830152611beb8184611980565b9050949350505050565b7f756e61626c6520746f207472616e73666572416e6443616c6c20746f206f726160008201527f636c650000000000000000000000000000000000000000000000000000000000602082015250565b6000611c5160238361151b565b9150611c5c82611bf5565b604082019050919050565b60006020820190508181036000830152611c8081611c44565b9050919050565b6000611c92826113f1565b9150611c9d836113f1565b9250828202611cab816113f1565b91508282048414831517611cc257611cc1611848565b5b5092915050565b60008160011c9050919050565b6000808291508390505b6001851115611d2057808604811115611cfc57611cfb611848565b5b6001851615611d0b5780820291505b8081029050611d1985611cc9565b9450611ce0565b94509492505050565b600082611d395760019050611df5565b81611d475760009050611df5565b8160018114611d5d5760028114611d6757611d96565b6001915050611df5565b60ff841115611d7957611d78611848565b5b8360020a915084821115611d9057611d8f611848565b5b50611df5565b5060208310610133831016604e8410600b8410161715611dcb5782820a905083811115611dc657611dc5611848565b5b611df5565b611dd88484846001611cd6565b92509050818404811115611def57611dee611848565b5b81810290505b9392505050565b6000611e07826113f1565b9150611e12836113f1565b9250611e3f7fffffffffffffffffffffffffffffffffffffffffffffffffffffffffffffffff8484611d29565b90509291505056fe68747470733a2f2f6170692e666c69676874732e6761626f752e636f6f6c2f666c69676874732f666c696768744e756d6265723f666c696768744e756d6265723d54432d323032323132313030303030a2646970667358221220eac716482ddf5247860cc7278d6c77e88e78b593b48675b6ac8696b37c437a0e64736f6c63430008110033",
  "immutableReferences": {},
  "source": "// SPDX-License-Identifier: MIT\npragma solidity ^0.8.17;\n\nimport \"@chainlink/contracts/src/v0.8/ChainlinkClient.sol\";\nimport \"@chainlink/contracts/src/v0.8/ConfirmedOwner.sol\";\n\n/**\n * Request testnet LINK and ETH here: https://faucets.chain.link/\n * Find information on LINK Token Contracts and get the latest ETH and LINK faucets here: https://docs.chain.link/docs/link-token-contracts/\n */\n\n/**\n * THIS IS AN EXAMPLE CONTRACT WHICH USES HARDCODED VALUES FOR CLARITY.\n * THIS EXAMPLE USES UN-AUDITED CODE.\n * DO NOT USE THIS CODE IN PRODUCTION.\n */\n\ncontract ChainlinkTest is ChainlinkClient, ConfirmedOwner {\n    using Chainlink for Chainlink.Request;\n\n    uint256 public volume;\n    bytes32 private jobId;\n    uint256 private fee;\n\n    event RequestVolume(bytes32 indexed requestId, uint256 volume);\n\n    /**\n     * @notice Initialize the link token and target oracle\n     *\n     * Goerli Testnet details:\n     * Link Token: 0x326C977E6efc84E512bB9C30f76E30c160eD06FB\n     * Oracle: 0xCC79157eb46F5624204f47AB42b3906cAA40eaB7 (Chainlink DevRel)\n     * jobId: ca98366cc7314957b8c012c72f05aeeb\n     *\n     */\n    constructor() ConfirmedOwner(msg.sender) {\n        setChainlinkToken(0x326C977E6efc84E512bB9C30f76E30c160eD06FB);\n        setChainlinkOracle(0xCC79157eb46F5624204f47AB42b3906cAA40eaB7);\n        jobId = \"ca98366cc7314957b8c012c72f05aeeb\";\n        fee = (1 * LINK_DIVISIBILITY) / 10; // 0,1 * 10**18 (Varies by network and job)\n    }\n\n    /**\n     * Create a Chainlink request to retrieve API response, find the target\n     * data, then multiply by 1000000000000000000 (to remove decimal places from data).\n     */\n    function requestVolumeData() public returns (bytes32 requestId) {\n        Chainlink.Request memory req = buildChainlinkRequest(\n            jobId,\n            address(this),\n            this.fulfillRequestVolumeData.selector\n        );\n\n        // req.add(\n        //     \"get\",\n        //     \"https://min-api.cryptocompare.com/data/pricemultifull?fsyms=ETH&tsyms=USD\"\n        // );\n        // req.add(\"path\", \"RAW,ETH,USD,VOLUME24HOUR\");\n        req.add(\n            \"get\",\n            \"https://api.flights.gabou.cool/flights/flightNumber?flightNumber=TC-202212100000\"\n        );\n        req.add(\"path\", \"__v\");\n\n        req.addInt(\"times\", 1);\n\n        // Sends the request\n        return sendChainlinkRequest(req, fee);\n    }\n\n    /**\n     * Receive the response in the form of uint256\n     */\n    function fulfillRequestVolumeData(\n        bytes32 _requestId,\n        uint256 _volume\n    ) public recordChainlinkFulfillment(_requestId) {\n        emit RequestVolume(_requestId, _volume);\n        volume = 1;\n    }\n\n    /**\n     * Allow withdraw of Link tokens from the contract\n     */\n    function withdrawLink() public onlyOwner {\n        LinkTokenInterface link = LinkTokenInterface(chainlinkTokenAddress());\n        require(\n            link.transfer(msg.sender, link.balanceOf(address(this))),\n            \"Unable to transfer\"\n        );\n    }\n}\n",
  "sourcePath": "/Users/gabou/Sites/alyra-techcare-dev/truffle/contracts/ChainlinkTest.sol",
  "compiler": {
    "name": "solc",
    "version": "0.8.17+commit.8df45f5f.Emscripten.clang"
  },
  "schemaVersion": "3.4.10",
  "updatedAt": "2022-12-11T16:42:52.769Z",
  "networkType": "ethereum",
  "devdoc": {
    "kind": "dev",
    "methods": {},
    "version": 1
  },
  "userdoc": {
    "kind": "user",
    "methods": {
      "acceptOwnership()": {
        "notice": "Allows an ownership transfer to be completed by the recipient."
      },
      "constructor": {
        "notice": "Initialize the link token and target oracle Goerli Testnet details: Link Token: 0x326C977E6efc84E512bB9C30f76E30c160eD06FB Oracle: 0xCC79157eb46F5624204f47AB42b3906cAA40eaB7 (Chainlink DevRel) jobId: ca98366cc7314957b8c012c72f05aeeb"
      },
      "fulfillRequestVolumeData(bytes32,uint256)": {
        "notice": "Receive the response in the form of uint256"
      },
      "owner()": {
        "notice": "Get the current owner"
      },
      "requestVolumeData()": {
        "notice": "Create a Chainlink request to retrieve API response, find the target data, then multiply by 1000000000000000000 (to remove decimal places from data)."
      },
      "transferOwnership(address)": {
        "notice": "Allows an owner to begin transferring ownership to a new address, pending."
      },
      "withdrawLink()": {
        "notice": "Allow withdraw of Link tokens from the contract"
      }
    },
    "notice": "THIS IS AN EXAMPLE CONTRACT WHICH USES HARDCODED VALUES FOR CLARITY. THIS EXAMPLE USES UN-AUDITED CODE. DO NOT USE THIS CODE IN PRODUCTION.",
    "version": 1
  }
}