{
  "contractName": "DAO",
  "abi": [
    {
      "inputs": [
        {
          "internalType": "address",
          "name": "_oracleAddress",
          "type": "address"
        }
      ],
      "stateMutability": "nonpayable",
      "type": "constructor"
    },
    {
      "anonymous": false,
      "inputs": [
        {
          "indexed": false,
          "internalType": "address",
          "name": "subscriber",
          "type": "address"
        },
        {
          "indexed": false,
          "internalType": "uint256",
          "name": "premiumID",
          "type": "uint256"
        }
      ],
      "name": "PremiumCreated",
      "type": "event"
    },
    {
      "anonymous": false,
      "inputs": [
        {
          "indexed": false,
          "internalType": "address",
          "name": "subscriber",
          "type": "address"
        },
        {
          "indexed": false,
          "internalType": "uint256",
          "name": "premiumID",
          "type": "uint256"
        }
      ],
      "name": "PremiumUpdated",
      "type": "event"
    },
    {
      "inputs": [
        {
          "internalType": "uint256",
          "name": "_premiumID",
          "type": "uint256"
        }
      ],
      "name": "getPremium",
      "outputs": [
        {
          "components": [
            {
              "internalType": "address",
              "name": "subscriber",
              "type": "address"
            },
            {
              "internalType": "string",
              "name": "flightNumber",
              "type": "string"
            },
            {
              "internalType": "uint256",
              "name": "amount",
              "type": "uint256"
            },
            {
              "internalType": "uint256",
              "name": "price",
              "type": "uint256"
            },
            {
              "internalType": "uint256",
              "name": "validUntil",
              "type": "uint256"
            },
            {
              "internalType": "bool",
              "name": "contracted",
              "type": "bool"
            },
            {
              "internalType": "bool",
              "name": "refunded",
              "type": "bool"
            }
          ],
          "internalType": "struct DAO.Premium",
          "name": "",
          "type": "tuple"
        }
      ],
      "stateMutability": "view",
      "type": "function",
      "constant": true
    },
    {
      "inputs": [
        {
          "internalType": "string",
          "name": "_flightNumber",
          "type": "string"
        },
        {
          "internalType": "uint256",
          "name": "_amount",
          "type": "uint256"
        }
      ],
      "name": "createPremium",
      "outputs": [],
      "stateMutability": "nonpayable",
      "type": "function"
    },
    {
      "inputs": [
        {
          "internalType": "uint256",
          "name": "_premiumID",
          "type": "uint256"
        },
        {
          "internalType": "uint256",
          "name": "_price",
          "type": "uint256"
        }
      ],
      "name": "setPremiumPrice",
      "outputs": [],
      "stateMutability": "nonpayable",
      "type": "function"
    },
    {
      "inputs": [
        {
          "internalType": "uint256",
          "name": "_premiumID",
          "type": "uint256"
        }
      ],
      "name": "contractPremium",
      "outputs": [],
      "stateMutability": "nonpayable",
      "type": "function"
    },
    {
      "inputs": [
        {
          "internalType": "string",
          "name": "_flightNumber",
          "type": "string"
        },
        {
          "internalType": "bool",
          "name": "_canceled",
          "type": "bool"
        }
      ],
      "name": "setStatus",
      "outputs": [],
      "stateMutability": "nonpayable",
      "type": "function"
    },
    {
      "inputs": [],
      "name": "getMinAmount",
      "outputs": [
        {
          "internalType": "uint256",
          "name": "",
          "type": "uint256"
        }
      ],
      "stateMutability": "view",
      "type": "function",
      "constant": true
    },
    {
      "inputs": [
        {
          "internalType": "uint256",
          "name": "_minAmount",
          "type": "uint256"
        }
      ],
      "name": "setMinAmount",
      "outputs": [],
      "stateMutability": "nonpayable",
      "type": "function"
    },
    {
      "inputs": [],
      "name": "getMaxAmount",
      "outputs": [
        {
          "internalType": "uint256",
          "name": "",
          "type": "uint256"
        }
      ],
      "stateMutability": "view",
      "type": "function",
      "constant": true
    },
    {
      "inputs": [
        {
          "internalType": "uint256",
          "name": "_maxAmount",
          "type": "uint256"
        }
      ],
      "name": "setMaxAmount",
      "outputs": [],
      "stateMutability": "nonpayable",
      "type": "function"
    },
    {
      "inputs": [
        {
          "internalType": "address",
          "name": "_oracleAddress",
          "type": "address"
        }
      ],
      "name": "setOracle",
      "outputs": [],
      "stateMutability": "nonpayable",
      "type": "function"
    }
  ],
  "bytecode": "0x60806040526200002460405180602001604052806000815250620000b160201b60201c565b600155600a600255606460035561012c6004553480156200004457600080fd5b50604051620023473803806200234783398181016040528101906200006a91906200014d565b806000806101000a81548173ffffffffffffffffffffffffffffffffffffffff021916908373ffffffffffffffffffffffffffffffffffffffff1602179055505062000211565b600081604051602001620000c69190620001f8565b604051602081830303815290604052805190602001209050919050565b600080fd5b600073ffffffffffffffffffffffffffffffffffffffff82169050919050565b60006200011582620000e8565b9050919050565b620001278162000108565b81146200013357600080fd5b50565b60008151905062000147816200011c565b92915050565b600060208284031215620001665762000165620000e3565b5b6000620001768482850162000136565b91505092915050565b600081519050919050565b600081905092915050565b60005b83811015620001b557808201518184015260208101905062000198565b60008484015250505050565b6000620001ce826200017f565b620001da81856200018a565b9350620001ec81856020860162000195565b80840191505092915050565b6000620002068284620001c1565b915081905092915050565b61212680620002216000396000f3fe608060405234801561001057600080fd5b506004361061009e5760003560e01c80637adbf973116100665780637adbf97314610145578063897b063714610161578063bd8624e61461017d578063cba676d714610199578063cfc7e2da146101b55761009e565b80630ba95909146100a35780631bf1fffb146100c15780633042f988146100f15780634fe47f701461010d57806366ef2ac514610129575b600080fd5b6100ab6101d3565b6040516100b891906112c7565b60405180910390f35b6100db60048036038101906100d69190611318565b6101dd565b6040516100e891906114dc565b60405180910390f35b61010b60048036038101906101069190611563565b61044f565b005b61012760048036038101906101229190611318565b610767565b005b610143600480360381019061013e9190611318565b6107b2565b005b61015f600480360381019061015a91906115ef565b610cd1565b005b61017b60048036038101906101769190611318565b610d55565b005b6101976004803603810190610192919061161c565b610da0565b005b6101b360048036038101906101ae9190611688565b610f11565b005b6101bd6111ed565b6040516101ca91906112c7565b60405180910390f35b6000600354905090565b6101e5611227565b600580549050821061022c576040517f08c379a000000000000000000000000000000000000000000000000000000000815260040161022390611745565b60405180910390fd5b3373ffffffffffffffffffffffffffffffffffffffff166005838154811061025757610256611765565b5b906000526020600020906006020160000160009054906101000a900473ffffffffffffffffffffffffffffffffffffffff1673ffffffffffffffffffffffffffffffffffffffff16146102df576040517f08c379a00000000000000000000000000000000000000000000000000000000081526004016102d6906117e0565b60405180910390fd5b600582815481106102f3576102f2611765565b5b90600052602060002090600602016040518060e00160405290816000820160009054906101000a900473ffffffffffffffffffffffffffffffffffffffff1673ffffffffffffffffffffffffffffffffffffffff1673ffffffffffffffffffffffffffffffffffffffff1681526020016001820180546103729061182f565b80601f016020809104026020016040519081016040528092919081815260200182805461039e9061182f565b80156103eb5780601f106103c0576101008083540402835291602001916103eb565b820191906000526020600020905b8154815290600101906020018083116103ce57829003601f168201915b505050505081526020016002820154815260200160038201548152602001600482015481526020016005820160009054906101000a900460ff161515151581526020016005820160019054906101000a900460ff1615151515815250509050919050565b60015461049f84848080601f016020809104026020016040519081016040528093929190818152602001838380828437600081840152601f19601f820116905080830192505050505050506111f7565b036104df576040517f08c379a00000000000000000000000000000000000000000000000000000000081526004016104d6906118ac565b60405180910390fd5b6104e7611227565b33816000019073ffffffffffffffffffffffffffffffffffffffff16908173ffffffffffffffffffffffffffffffffffffffff168152505083838080601f016020809104026020016040519081016040528093929190818152602001838380828437600081840152601f19601f82011690508083019250505050505050816020018190525081816040018181525050600581908060018154018082558091505060019003906000526020600020906006020160009091909190915060008201518160000160006101000a81548173ffffffffffffffffffffffffffffffffffffffff021916908373ffffffffffffffffffffffffffffffffffffffff16021790555060208201518160010190816105fe9190611aa7565b5060408201518160020155606082015181600301556080820151816004015560a08201518160050160006101000a81548160ff02191690831515021790555060c08201518160050160016101000a81548160ff021916908315150217905550505060008054906101000a900473ffffffffffffffffffffffffffffffffffffffff1673ffffffffffffffffffffffffffffffffffffffff16632e84860960016005805490506106ad9190611ba8565b8686866040518563ffffffff1660e01b81526004016106cf9493929190611c18565b6020604051808303816000875af11580156106ee573d6000803e3d6000fd5b505050506040513d601f19601f820116820180604052508101906107129190611c8e565b507fd1bfd0dbf8780a1edd7e5e626a491aec7e3a7c3aba04a569621e5e94f1fe64e88160000151600160058054905061074b9190611ba8565b604051610759929190611cca565b60405180910390a150505050565b60006107a8576040517f08c379a000000000000000000000000000000000000000000000000000000000815260040161079f90611d3f565b60405180910390fd5b8060038190555050565b60058054905081106107f9576040517f08c379a00000000000000000000000000000000000000000000000000000000081526004016107f090611745565b60405180910390fd5b3373ffffffffffffffffffffffffffffffffffffffff166005828154811061082457610823611765565b5b906000526020600020906006020160000160009054906101000a900473ffffffffffffffffffffffffffffffffffffffff1673ffffffffffffffffffffffffffffffffffffffff16146108ac576040517f08c379a00000000000000000000000000000000000000000000000000000000081526004016108a3906117e0565b60405180910390fd5b6000600582815481106108c2576108c1611765565b5b90600052602060002090600602016003015403610914576040517f08c379a000000000000000000000000000000000000000000000000000000000815260040161090b90611dab565b60405180910390fd5b6005818154811061092857610927611765565b5b906000526020600020906006020160050160009054906101000a900460ff1615610987576040517f08c379a000000000000000000000000000000000000000000000000000000000815260040161097e90611e17565b60405180910390fd5b60016005828154811061099d5761099c611765565b5b906000526020600020906006020160050160006101000a81548160ff0219169083151502179055506109cd61127e565b33816000019073ffffffffffffffffffffffffffffffffffffffff16908173ffffffffffffffffffffffffffffffffffffffff168152505081816020018181525050600660058381548110610a2557610a24611765565b5b9060005260206000209060060201600101604051610a439190611ec5565b908152602001604051809103902081908060018154018082558091505060019003906000526020600020906002020160009091909190915060008201518160000160006101000a81548173ffffffffffffffffffffffffffffffffffffffff021916908373ffffffffffffffffffffffffffffffffffffffff1602179055506020820151816001015550506001600660058481548110610ae657610ae5611765565b5b9060005260206000209060060201600101604051610b049190611ec5565b90815260200160405180910390208054905003610bcb5760008054906101000a900473ffffffffffffffffffffffffffffffffffffffff1673ffffffffffffffffffffffffffffffffffffffff1663507e788860058481548110610b6b57610b6a611765565b5b90600052602060002090600602016001016040518263ffffffff1660e01b8152600401610b989190611f60565b600060405180830381600087803b158015610bb257600080fd5b505af1158015610bc6573d6000803e3d6000fd5b505050505b60008054906101000a900473ffffffffffffffffffffffffffffffffffffffff1673ffffffffffffffffffffffffffffffffffffffff1663a84f545c60058481548110610c1b57610c1a611765565b5b90600052602060002090600602016001016040518263ffffffff1660e01b8152600401610c489190611f60565b6020604051808303816000875af1158015610c67573d6000803e3d6000fd5b505050506040513d601f19601f82011682018060405250810190610c8b9190611c8e565b507f2da3e2ee89b99e7cbf81bc172bb36590071688a8b32f1f1bdc7d963b1ec86abe81600001518260200151604051610cc5929190611cca565b60405180910390a15050565b6000610d12576040517f08c379a0000000000000000000000000000000000000000000000000000000008152600401610d0990611d3f565b60405180910390fd5b806000806101000a81548173ffffffffffffffffffffffffffffffffffffffff021916908373ffffffffffffffffffffffffffffffffffffffff16021790555050565b6000610d96576040517f08c379a0000000000000000000000000000000000000000000000000000000008152600401610d8d90611d3f565b60405180910390fd5b8060028190555050565b60008054906101000a900473ffffffffffffffffffffffffffffffffffffffff1673ffffffffffffffffffffffffffffffffffffffff163373ffffffffffffffffffffffffffffffffffffffff1614610e2e576040517f08c379a0000000000000000000000000000000000000000000000000000000008152600401610e2590611fce565b60405180910390fd5b8060058381548110610e4357610e42611765565b5b90600052602060002090600602016003018190555060045442610e669190611fee565b60058381548110610e7a57610e79611765565b5b9060005260206000209060060201600401819055507f2da3e2ee89b99e7cbf81bc172bb36590071688a8b32f1f1bdc7d963b1ec86abe60058381548110610ec457610ec3611765565b5b906000526020600020906006020160000160009054906101000a900473ffffffffffffffffffffffffffffffffffffffff1683604051610f05929190611cca565b60405180910390a15050565b60008054906101000a900473ffffffffffffffffffffffffffffffffffffffff1673ffffffffffffffffffffffffffffffffffffffff163373ffffffffffffffffffffffffffffffffffffffff1614610f9f576040517f08c379a0000000000000000000000000000000000000000000000000000000008152600401610f9690611fce565b60405180910390fd5b80156111e85760005b60068484604051610fba929190612047565b9081526020016040518091039020805490508110156111e657600560068585604051610fe7929190612047565b9081526020016040518091039020828154811061100757611006611765565b5b9060005260206000209060020201600101548154811061102a57611029611765565b5b906000526020600020906006020160050160019054906101000a900460ff166111d3576001600560068686604051611063929190612047565b9081526020016040518091039020838154811061108357611082611765565b5b906000526020600020906002020160010154815481106110a6576110a5611765565b5b906000526020600020906006020160050160016101000a81548160ff0219169083151502179055507f2da3e2ee89b99e7cbf81bc172bb36590071688a8b32f1f1bdc7d963b1ec86abe600560068686604051611103929190612047565b9081526020016040518091039020838154811061112357611122611765565b5b9060005260206000209060020201600101548154811061114657611145611765565b5b906000526020600020906006020160000160009054906101000a900473ffffffffffffffffffffffffffffffffffffffff166006868660405161118a929190612047565b908152602001604051809103902083815481106111aa576111a9611765565b5b9060005260206000209060020201600101546040516111ca929190611cca565b60405180910390a15b80806111de90612060565b915050610fa8565b505b505050565b6000600254905090565b60008160405160200161120a91906120d9565b604051602081830303815290604052805190602001209050919050565b6040518060e00160405280600073ffffffffffffffffffffffffffffffffffffffff168152602001606081526020016000815260200160008152602001600081526020016000151581526020016000151581525090565b6040518060400160405280600073ffffffffffffffffffffffffffffffffffffffff168152602001600081525090565b6000819050919050565b6112c1816112ae565b82525050565b60006020820190506112dc60008301846112b8565b92915050565b600080fd5b600080fd5b6112f5816112ae565b811461130057600080fd5b50565b600081359050611312816112ec565b92915050565b60006020828403121561132e5761132d6112e2565b5b600061133c84828501611303565b91505092915050565b600073ffffffffffffffffffffffffffffffffffffffff82169050919050565b600061137082611345565b9050919050565b61138081611365565b82525050565b600081519050919050565b600082825260208201905092915050565b60005b838110156113c05780820151818401526020810190506113a5565b60008484015250505050565b6000601f19601f8301169050919050565b60006113e882611386565b6113f28185611391565b93506114028185602086016113a2565b61140b816113cc565b840191505092915050565b61141f816112ae565b82525050565b60008115159050919050565b61143a81611425565b82525050565b600060e0830160008301516114586000860182611377565b506020830151848203602086015261147082826113dd565b91505060408301516114856040860182611416565b5060608301516114986060860182611416565b5060808301516114ab6080860182611416565b5060a08301516114be60a0860182611431565b5060c08301516114d160c0860182611431565b508091505092915050565b600060208201905081810360008301526114f68184611440565b905092915050565b600080fd5b600080fd5b600080fd5b60008083601f840112611523576115226114fe565b5b8235905067ffffffffffffffff8111156115405761153f611503565b5b60208301915083600182028301111561155c5761155b611508565b5b9250929050565b60008060006040848603121561157c5761157b6112e2565b5b600084013567ffffffffffffffff81111561159a576115996112e7565b5b6115a68682870161150d565b935093505060206115b986828701611303565b9150509250925092565b6115cc81611365565b81146115d757600080fd5b50565b6000813590506115e9816115c3565b92915050565b600060208284031215611605576116046112e2565b5b6000611613848285016115da565b91505092915050565b60008060408385031215611633576116326112e2565b5b600061164185828601611303565b925050602061165285828601611303565b9150509250929050565b61166581611425565b811461167057600080fd5b50565b6000813590506116828161165c565b92915050565b6000806000604084860312156116a1576116a06112e2565b5b600084013567ffffffffffffffff8111156116bf576116be6112e7565b5b6116cb8682870161150d565b935093505060206116de86828701611673565b9150509250925092565b600082825260208201905092915050565b7f7072656d69756d4e6f7445786973747300000000000000000000000000000000600082015250565b600061172f6010836116e8565b915061173a826116f9565b602082019050919050565b6000602082019050818103600083015261175e81611722565b9050919050565b7f4e487b7100000000000000000000000000000000000000000000000000000000600052603260045260246000fd5b7f77726f6e67537562736372696265720000000000000000000000000000000000600082015250565b60006117ca600f836116e8565b91506117d582611794565b602082019050919050565b600060208201905081810360008301526117f9816117bd565b9050919050565b7f4e487b7100000000000000000000000000000000000000000000000000000000600052602260045260246000fd5b6000600282049050600182168061184757607f821691505b60208210810361185a57611859611800565b5b50919050565b7f656d707479466c696768744e756d626572000000000000000000000000000000600082015250565b60006118966011836116e8565b91506118a182611860565b602082019050919050565b600060208201905081810360008301526118c581611889565b9050919050565b7f4e487b7100000000000000000000000000000000000000000000000000000000600052604160045260246000fd5b60008190508160005260206000209050919050565b60006020601f8301049050919050565b600082821b905092915050565b60006008830261195d7fffffffffffffffffffffffffffffffffffffffffffffffffffffffffffffffff82611920565b6119678683611920565b95508019841693508086168417925050509392505050565b6000819050919050565b60006119a461199f61199a846112ae565b61197f565b6112ae565b9050919050565b6000819050919050565b6119be83611989565b6119d26119ca826119ab565b84845461192d565b825550505050565b600090565b6119e76119da565b6119f28184846119b5565b505050565b5b81811015611a1657611a0b6000826119df565b6001810190506119f8565b5050565b601f821115611a5b57611a2c816118fb565b611a3584611910565b81016020851015611a44578190505b611a58611a5085611910565b8301826119f7565b50505b505050565b600082821c905092915050565b6000611a7e60001984600802611a60565b1980831691505092915050565b6000611a978383611a6d565b9150826002028217905092915050565b611ab082611386565b67ffffffffffffffff811115611ac957611ac86118cc565b5b611ad3825461182f565b611ade828285611a1a565b600060209050601f831160018114611b115760008415611aff578287015190505b611b098582611a8b565b865550611b71565b601f198416611b1f866118fb565b60005b82811015611b4757848901518255600182019150602085019450602081019050611b22565b86831015611b645784890151611b60601f891682611a6d565b8355505b6001600288020188555050505b505050505050565b7f4e487b7100000000000000000000000000000000000000000000000000000000600052601160045260246000fd5b6000611bb3826112ae565b9150611bbe836112ae565b9250828203905081811115611bd657611bd5611b79565b5b92915050565b82818337600083830152505050565b6000611bf783856116e8565b9350611c04838584611bdc565b611c0d836113cc565b840190509392505050565b6000606082019050611c2d60008301876112b8565b8181036020830152611c40818587611beb565b9050611c4f60408301846112b8565b95945050505050565b6000819050919050565b611c6b81611c58565b8114611c7657600080fd5b50565b600081519050611c8881611c62565b92915050565b600060208284031215611ca457611ca36112e2565b5b6000611cb284828501611c79565b91505092915050565b611cc481611365565b82525050565b6000604082019050611cdf6000830185611cbb565b611cec60208301846112b8565b9392505050565b7f64616f4e6f745265616479000000000000000000000000000000000000000000600082015250565b6000611d29600b836116e8565b9150611d3482611cf3565b602082019050919050565b60006020820190508181036000830152611d5881611d1c565b9050919050565b7f7072656d69756d50726963654e6f745365740000000000000000000000000000600082015250565b6000611d956012836116e8565b9150611da082611d5f565b602082019050919050565b60006020820190508181036000830152611dc481611d88565b9050919050565b7f7072656d69756d416c72616479436f6e74616374656400000000000000000000600082015250565b6000611e016016836116e8565b9150611e0c82611dcb565b602082019050919050565b60006020820190508181036000830152611e3081611df4565b9050919050565b600081905092915050565b60008154611e4f8161182f565b611e598186611e37565b94506001821660008114611e745760018114611e8957611ebc565b60ff1983168652811515820286019350611ebc565b611e92856118fb565b60005b83811015611eb457815481890152600182019150602081019050611e95565b838801955050505b50505092915050565b6000611ed18284611e42565b915081905092915050565b60008154611ee98161182f565b611ef381866116e8565b94506001821660008114611f0e5760018114611f2457611f57565b60ff198316865281151560200286019350611f57565b611f2d856118fb565b60005b83811015611f4f57815481890152600182019150602081019050611f30565b808801955050505b50505092915050565b60006020820190508181036000830152611f7a8184611edc565b905092915050565b7f6f6e6c794f7261636c6500000000000000000000000000000000000000000000600082015250565b6000611fb8600a836116e8565b9150611fc382611f82565b602082019050919050565b60006020820190508181036000830152611fe781611fab565b9050919050565b6000611ff9826112ae565b9150612004836112ae565b925082820190508082111561201c5761201b611b79565b5b92915050565b600061202e8385611e37565b935061203b838584611bdc565b82840190509392505050565b6000612054828486612022565b91508190509392505050565b600061206b826112ae565b91507fffffffffffffffffffffffffffffffffffffffffffffffffffffffffffffffff820361209d5761209c611b79565b5b600182019050919050565b60006120b382611386565b6120bd8185611e37565b93506120cd8185602086016113a2565b80840191505092915050565b60006120e582846120a8565b91508190509291505056fea2646970667358221220d9c0613f67b14641bd94d80f87dbba96ea9f3bea89052df7990e453f8e81b10364736f6c63430008110033",
  "immutableReferences": {},
  "source": "// SPDX-License-Identifier: MIT\npragma solidity 0.8.17;\n\nimport \"./Oracle.sol\";\n\n/// @title TechCare DAO\n/// @author Victor G\n/// @notice TechCare DAO smart contract works with a TechCare Oracle smart contract that will be used to handle risk & subscription\n/// @dev TechCare DAO smart contract works with a TechCare Oracle smart contract that will be used to handle risk & subscription\ncontract DAO {\n\n  struct Premium {\n      address subscriber;\n      string flightNumber;\n      uint256 amount;\n      uint256 price;\n      uint256 validUntil;\n      bool contracted;\n      bool refunded;\n  }\n\n  struct Subscription {\n      address subscriber;\n      uint256 premiumId;\n  }\n\n  Oracle oracle;\n\n  bytes32 emptyStringHash = _hashString(\"\");\n\n  uint256 minAmount = 10;\n  uint256 maxAmount = 100;\n\n  uint256 defaultTimeToSubscribe = 5 minutes;\n\n  Premium[] premiums;\n  mapping(string => Subscription[]) subscriptions;\n\n  event PremiumCreated(address subscriber, uint256 premiumID);\n  event PremiumUpdated(address subscriber, uint256 premiumID);\n\n  /// @notice Restrict call to DAO\n  /// @dev DAO not implemented yet\n  modifier onlyDAO() {\n      require(false, \"daoNotReady\");\n      _;\n  }\n\n  /// @notice Restrict call to oracle\n  modifier onlyOracle() {\n      require(msg.sender == address(oracle), \"onlyOracle\");\n      _;\n  }\n\n  constructor(address _oracleAddress) {\n    oracle = Oracle(_oracleAddress);\n  }\n\n  /// @notice Get Premium by ID\n  /// @dev Only subscriber\n  /// @param _premiumID Premium's ID\n  /// @return Premium\n  function getPremium(uint256 _premiumID) external view returns (Premium memory) {\n    require(_premiumID < premiums.length, \"premiumNotExists\");\n    require(premiums[_premiumID].subscriber == msg.sender, \"wrongSubscriber\");\n    return premiums[_premiumID];\n  }\n\n  /// @notice Create premium and ask oracle for risk based on flight number and amount\n  /// @dev Use oracle to request risk\n  /// @param _flightNumber Insurance flight number\n  /// @param _amount Insurance amount\n  function createPremium(string calldata _flightNumber, uint256 _amount) external {\n    require(_hashString(_flightNumber) != emptyStringHash, \"emptyFlightNumber\");\n\n    Premium memory premium;\n    premium.subscriber = msg.sender;\n    premium.flightNumber = _flightNumber;\n    premium.amount = _amount;\n    premiums.push(premium);\n\n    oracle.requestRisk(premiums.length - 1, _flightNumber, _amount);\n\n    emit PremiumCreated(premium.subscriber, premiums.length - 1);\n  }\n\n  /// @notice Set premium price\n  /// @dev Only TechCare oracle\n  /// @param _premiumID Premium's ID\n  /// @param _price Premium's price\n  function setPremiumPrice(uint256 _premiumID, uint256 _price) external onlyOracle {\n    premiums[_premiumID].price = _price;\n    premiums[_premiumID].validUntil = block.timestamp + defaultTimeToSubscribe;\n    emit PremiumUpdated(premiums[_premiumID].subscriber, _premiumID);\n  }\n\n\n  /// @notice Contract premium\n  /// @dev If first user to contract premium for this flight number, subscribe to oracle\n  /// @dev Oracle's requestCancel is called instantly for testing purposes, it should be called by Oracle\n  /// @param _premiumID Premium's ID\n  function contractPremium(uint256 _premiumID) external {\n    require(_premiumID < premiums.length, \"premiumNotExists\");\n    require(premiums[_premiumID].subscriber == msg.sender, \"wrongSubscriber\");\n    require(premiums[_premiumID].price != 0, \"premiumPriceNotSet\");\n    require(!premiums[_premiumID].contracted, \"premiumAlradyContacted\");\n    premiums[_premiumID].contracted = true;\n\n    Subscription memory subscription;\n    subscription.subscriber = msg.sender;\n    subscription.premiumId = _premiumID;\n    subscriptions[premiums[_premiumID].flightNumber].push(subscription);\n\n    if(subscriptions[premiums[_premiumID].flightNumber].length == 1) {\n      oracle.subscribe(premiums[_premiumID].flightNumber);\n    }\n\n    /// @dev Should be moved to Oracle\n    oracle.requestCancel(premiums[_premiumID].flightNumber);\n\n    emit PremiumUpdated(subscription.subscriber, subscription.premiumId);\n  }\n\n  /// @notice Set subscription status\n  /// @dev Only TechCare oracle\n  /// @param _flightNumber Subscription's flight number\n  /// @param _canceled Subscription's canceled status\n  function setStatus(string calldata _flightNumber, bool _canceled) external onlyOracle {\n    if (_canceled) {\n      for (uint256 i = 0; i < subscriptions[_flightNumber].length; i++) {\n        if (!premiums[subscriptions[_flightNumber][i].premiumId].refunded) {\n          premiums[subscriptions[_flightNumber][i].premiumId].refunded = true;\n          emit PremiumUpdated(premiums[subscriptions[_flightNumber][i].premiumId].subscriber, subscriptions[_flightNumber][i].premiumId);\n        }\n      }\n    }\n  }\n\n  /// @notice Get DAO min insurance amount\n  /// @return uint256\n  function getMinAmount() external view returns (uint256) {\n    return minAmount;\n  }\n\n  /// @notice Set DAO min insurance amount\n  /// @dev Only DAO\n  /// @param _minAmount DAO min insurance amount\n  function setMinAmount(uint256 _minAmount) external onlyDAO {\n    minAmount = _minAmount;\n  }\n\n  /// @notice Get DAO max insurance amount\n  /// @return uint256\n  function getMaxAmount() external view returns (uint256) {\n    return maxAmount;\n  }\n\n  /// @notice Set DAO max insurance amount\n  /// @dev Only DAO\n  /// @param _maxAmount DAO max insurance amount\n  function setMaxAmount(uint256 _maxAmount) external onlyDAO {\n    maxAmount = _maxAmount;\n  }\n\n  /// @notice Set DAO oracle\n  /// @dev Only DAO\n  /// @param _oracleAddress DAO oracle address\n  function setOracle(address _oracleAddress) external onlyDAO {\n    oracle = Oracle(_oracleAddress);\n  }\n\n  /// @notice Hash string to bytes32\n  /// @dev Helper\n  /// @param _string String\n  /// @return bytes32\n  function _hashString(string memory _string) private pure returns(bytes32) {\n    return keccak256(abi.encodePacked(_string));\n  }\n}\n",
  "sourcePath": "/Users/gabou/Sites/alyra-project-4/truffle/contracts/DAO.sol",
  "compiler": {
    "name": "solc",
    "version": "0.8.17+commit.8df45f5f.Emscripten.clang"
  },
  "schemaVersion": "3.4.10",
  "updatedAt": "2022-12-12T05:08:44.908Z",
  "networkType": "ethereum",
  "devdoc": {
    "author": "Victor G",
    "details": "TechCare DAO smart contract works with a TechCare Oracle smart contract that will be used to handle risk & subscription",
    "kind": "dev",
    "methods": {
      "contractPremium(uint256)": {
        "details": "If first user to contract premium for this flight number, subscribe to oracleOracle's requestCancel is called instantly for testing purposes, it should be called by Oracle",
        "params": {
          "_premiumID": "Premium's ID"
        }
      },
      "createPremium(string,uint256)": {
        "details": "Use oracle to request risk",
        "params": {
          "_amount": "Insurance amount",
          "_flightNumber": "Insurance flight number"
        }
      },
      "getMaxAmount()": {
        "returns": {
          "_0": "uint256"
        }
      },
      "getMinAmount()": {
        "returns": {
          "_0": "uint256"
        }
      },
      "getPremium(uint256)": {
        "details": "Only subscriber",
        "params": {
          "_premiumID": "Premium's ID"
        },
        "returns": {
          "_0": "Premium"
        }
      },
      "setMaxAmount(uint256)": {
        "details": "Only DAO",
        "params": {
          "_maxAmount": "DAO max insurance amount"
        }
      },
      "setMinAmount(uint256)": {
        "details": "Only DAO",
        "params": {
          "_minAmount": "DAO min insurance amount"
        }
      },
      "setOracle(address)": {
        "details": "Only DAO",
        "params": {
          "_oracleAddress": "DAO oracle address"
        }
      },
      "setPremiumPrice(uint256,uint256)": {
        "details": "Only TechCare oracle",
        "params": {
          "_premiumID": "Premium's ID",
          "_price": "Premium's price"
        }
      },
      "setStatus(string,bool)": {
        "details": "Only TechCare oracle",
        "params": {
          "_canceled": "Subscription's canceled status",
          "_flightNumber": "Subscription's flight number"
        }
      }
    },
    "title": "TechCare DAO",
    "version": 1
  },
  "userdoc": {
    "kind": "user",
    "methods": {
      "contractPremium(uint256)": {
        "notice": "Contract premium"
      },
      "createPremium(string,uint256)": {
        "notice": "Create premium and ask oracle for risk based on flight number and amount"
      },
      "getMaxAmount()": {
        "notice": "Get DAO max insurance amount"
      },
      "getMinAmount()": {
        "notice": "Get DAO min insurance amount"
      },
      "getPremium(uint256)": {
        "notice": "Get Premium by ID"
      },
      "setMaxAmount(uint256)": {
        "notice": "Set DAO max insurance amount"
      },
      "setMinAmount(uint256)": {
        "notice": "Set DAO min insurance amount"
      },
      "setOracle(address)": {
        "notice": "Set DAO oracle"
      },
      "setPremiumPrice(uint256,uint256)": {
        "notice": "Set premium price"
      },
      "setStatus(string,bool)": {
        "notice": "Set subscription status"
      }
    },
    "notice": "TechCare DAO smart contract works with a TechCare Oracle smart contract that will be used to handle risk & subscription",
    "version": 1
  }
}