{
  "contractName": "DAOTmp",
  "abi": [
    {
      "inputs": [
        {
          "internalType": "string",
          "name": "_flightNumber",
          "type": "string"
        },
        {
          "internalType": "uint256",
          "name": "_amount",
          "type": "uint256"
        }
      ],
      "name": "estimatePremiumPrice",
      "outputs": [],
      "stateMutability": "nonpayable",
      "type": "function"
    },
    {
      "inputs": [
        {
          "internalType": "uint256",
          "name": "_premiumID",
          "type": "uint256"
        },
        {
          "internalType": "uint256",
          "name": "_price",
          "type": "uint256"
        }
      ],
      "name": "setPremiumPrice",
      "outputs": [],
      "stateMutability": "nonpayable",
      "type": "function"
    },
    {
      "inputs": [
        {
          "internalType": "uint256",
          "name": "_premiumID",
          "type": "uint256"
        }
      ],
      "name": "getPremiumPrice",
      "outputs": [
        {
          "internalType": "uint256",
          "name": "",
          "type": "uint256"
        }
      ],
      "stateMutability": "view",
      "type": "function"
    },
    {
      "inputs": [
        {
          "internalType": "uint256",
          "name": "_premiumID",
          "type": "uint256"
        }
      ],
      "name": "subscribe",
      "outputs": [],
      "stateMutability": "payable",
      "type": "function"
    },
    {
      "inputs": [
        {
          "internalType": "string",
          "name": "_proposal",
          "type": "string"
        }
      ],
      "name": "addProposal",
      "outputs": [],
      "stateMutability": "nonpayable",
      "type": "function"
    },
    {
      "inputs": [
        {
          "internalType": "uint256",
          "name": "_proposalID",
          "type": "uint256"
        }
      ],
      "name": "vote",
      "outputs": [],
      "stateMutability": "nonpayable",
      "type": "function"
    }
  ],
  "bytecode": "0x608060405234801561001057600080fd5b506104d6806100206000396000f3fe6080604052600436106100555760003560e01c80630121b93f1461005a5780630f574ba7146100835780632fdae3c51461009f57806335ff106a146100c8578063366b6a82146100f1578063bd8624e61461012e575b600080fd5b34801561006657600080fd5b50610081600480360381019061007c91906101ba565b610157565b005b61009d600480360381019061009891906101ba565b61015a565b005b3480156100ab57600080fd5b506100c660048036038101906100c1919061032d565b61015d565b005b3480156100d457600080fd5b506100ef60048036038101906100ea91906103d6565b610160565b005b3480156100fd57600080fd5b50610118600480360381019061011391906101ba565b610165565b6040516101259190610445565b60405180910390f35b34801561013a57600080fd5b5061015560048036038101906101509190610460565b61016c565b005b50565b50565b50565b505050565b6000919050565b5050565b6000604051905090565b600080fd5b600080fd5b6000819050919050565b61019781610184565b81146101a257600080fd5b50565b6000813590506101b48161018e565b92915050565b6000602082840312156101d0576101cf61017a565b5b60006101de848285016101a5565b91505092915050565b600080fd5b600080fd5b6000601f19601f8301169050919050565b7f4e487b7100000000000000000000000000000000000000000000000000000000600052604160045260246000fd5b61023a826101f1565b810181811067ffffffffffffffff8211171561025957610258610202565b5b80604052505050565b600061026c610170565b90506102788282610231565b919050565b600067ffffffffffffffff82111561029857610297610202565b5b6102a1826101f1565b9050602081019050919050565b82818337600083830152505050565b60006102d06102cb8461027d565b610262565b9050828152602081018484840111156102ec576102eb6101ec565b5b6102f78482856102ae565b509392505050565b600082601f830112610314576103136101e7565b5b81356103248482602086016102bd565b91505092915050565b6000602082840312156103435761034261017a565b5b600082013567ffffffffffffffff8111156103615761036061017f565b5b61036d848285016102ff565b91505092915050565b600080fd5b600080fd5b60008083601f840112610396576103956101e7565b5b8235905067ffffffffffffffff8111156103b3576103b2610376565b5b6020830191508360018202830111156103cf576103ce61037b565b5b9250929050565b6000806000604084860312156103ef576103ee61017a565b5b600084013567ffffffffffffffff81111561040d5761040c61017f565b5b61041986828701610380565b9350935050602061042c868287016101a5565b9150509250925092565b61043f81610184565b82525050565b600060208201905061045a6000830184610436565b92915050565b600080604083850312156104775761047661017a565b5b6000610485858286016101a5565b9250506020610496858286016101a5565b915050925092905056fea264697066735822122037d95ef6ff9e03749364c0767c3fe3c4f3162c610f21563b4082c2c5839b85c664736f6c63430008110033",
  "immutableReferences": {},
  "source": "// SPDX-License-Identifier: MIT\npragma solidity 0.8.17;\n\ncontract DAOTmp {\n\n  /*\n  *\n  * custom methods\n  *\n  */\n\n  // premiums mapping\n  // should actually be inside members mapping to facilitate premiumIds (simple hash vs need to use oracle to generate \"random\" hash)\n  mapping (uint256 => uint256) premiums;\n\n  function estimatePremiumPrice(string calldata _flightNumber, uint256 _amount) external {\n    // connect to oracle\n    // send _flightNumber (from user), _amount (from user), DAO liquidity pool (from dao), DAO number of subscribers (from dao) & premiumId (generated there)\n    // get premium price\n\n    // to be noted:\n    // _flightNumber is not verified there as there is no risk if user use the daap (checked previously by daap (offchain))\n  }\n\n  function setPremiumPrice(uint256 _premiumID, uint256 _price) external {\n    // oracle set premium price for premiumId\n\n    // an event is emited to notify user and to facilitate data retrieve\n  }\n\n  function getPremiumPrice(uint256 _premiumID) external view returns (uint256) {\n    // get premium price for premiumId\n\n    // this is kinda useless as there is an event for this\n  }\n\n  function subscribe(uint256 _premiumID) external payable {\n    // check if amount fit the premium price\n\n    // send him (if erc20) / increase in SC \"dao token\"\n\n    // connect to oracle\n    // subscribe to event for premium _flightNumber (if first subscriber to this _flightNumber)\n  }\n\n\n\n  /*\n  *\n  * basic dao methods\n  *\n  */\n\n  function addProposal (string memory _proposal) external {\n    // add proposal to list\n\n    // should handle more params as it can be different kind of votes\n    // string memory _proposal, uint256 _proposalType, bytes32 _data ?\n  }\n\n  function vote (uint256 _proposalID) external {\n    // vote for proposal\n\n    // should handle \"yes\" & \"no\" at least\n    // should maybe handle \"yes\" & \"no\" & \"je ne me prononce pas\"\n  }\n\n  function draw (uint256 _proposalID) internal {\n    // draw result for proposal\n\n    // should be auto-executed after delay?\n  }\n\n  // etc...\n}\n",
  "sourcePath": "/Users/gabou/Sites/alyra-techcare-dev/truffle/contracts/_DAO_tmp.sol",
  "compiler": {
    "name": "solc",
    "version": "0.8.17+commit.8df45f5f.Emscripten.clang"
  },
  "schemaVersion": "3.4.10",
  "updatedAt": "2022-12-10T15:55:01.070Z",
  "devdoc": {
    "kind": "dev",
    "methods": {},
    "version": 1
  },
  "userdoc": {
    "kind": "user",
    "methods": {},
    "version": 1
  }
}