{
  "contractName": "Oracle",
  "abi": [
    {
      "inputs": [],
      "stateMutability": "nonpayable",
      "type": "constructor"
    },
    {
      "anonymous": false,
      "inputs": [
        {
          "indexed": true,
          "internalType": "bytes32",
          "name": "id",
          "type": "bytes32"
        }
      ],
      "name": "ChainlinkCancelled",
      "type": "event"
    },
    {
      "anonymous": false,
      "inputs": [
        {
          "indexed": true,
          "internalType": "bytes32",
          "name": "id",
          "type": "bytes32"
        }
      ],
      "name": "ChainlinkFulfilled",
      "type": "event"
    },
    {
      "anonymous": false,
      "inputs": [
        {
          "indexed": true,
          "internalType": "bytes32",
          "name": "id",
          "type": "bytes32"
        }
      ],
      "name": "ChainlinkRequested",
      "type": "event"
    },
    {
      "anonymous": false,
      "inputs": [
        {
          "indexed": true,
          "internalType": "address",
          "name": "from",
          "type": "address"
        },
        {
          "indexed": true,
          "internalType": "address",
          "name": "to",
          "type": "address"
        }
      ],
      "name": "OwnershipTransferRequested",
      "type": "event"
    },
    {
      "anonymous": false,
      "inputs": [
        {
          "indexed": true,
          "internalType": "address",
          "name": "from",
          "type": "address"
        },
        {
          "indexed": true,
          "internalType": "address",
          "name": "to",
          "type": "address"
        }
      ],
      "name": "OwnershipTransferred",
      "type": "event"
    },
    {
      "inputs": [],
      "name": "acceptOwnership",
      "outputs": [],
      "stateMutability": "nonpayable",
      "type": "function"
    },
    {
      "inputs": [],
      "name": "owner",
      "outputs": [
        {
          "internalType": "address",
          "name": "",
          "type": "address"
        }
      ],
      "stateMutability": "view",
      "type": "function",
      "constant": true
    },
    {
      "inputs": [
        {
          "internalType": "address",
          "name": "to",
          "type": "address"
        }
      ],
      "name": "transferOwnership",
      "outputs": [],
      "stateMutability": "nonpayable",
      "type": "function"
    },
    {
      "inputs": [
        {
          "internalType": "uint256",
          "name": "_fromID",
          "type": "uint256"
        },
        {
          "internalType": "string",
          "name": "_flightNumber",
          "type": "string"
        },
        {
          "internalType": "uint256",
          "name": "_amount",
          "type": "uint256"
        }
      ],
      "name": "requestRisk",
      "outputs": [
        {
          "internalType": "bytes32",
          "name": "requestId",
          "type": "bytes32"
        }
      ],
      "stateMutability": "nonpayable",
      "type": "function"
    },
    {
      "inputs": [
        {
          "internalType": "bytes32",
          "name": "_requestId",
          "type": "bytes32"
        },
        {
          "internalType": "uint256",
          "name": "_risk",
          "type": "uint256"
        }
      ],
      "name": "fulfillRisk",
      "outputs": [],
      "stateMutability": "nonpayable",
      "type": "function"
    },
    {
      "inputs": [
        {
          "internalType": "string",
          "name": "_flightNumber",
          "type": "string"
        }
      ],
      "name": "subscribe",
      "outputs": [],
      "stateMutability": "nonpayable",
      "type": "function"
    },
    {
      "inputs": [
        {
          "internalType": "string",
          "name": "_flightNumber",
          "type": "string"
        }
      ],
      "name": "requestCancel",
      "outputs": [
        {
          "internalType": "bytes32",
          "name": "requestId",
          "type": "bytes32"
        }
      ],
      "stateMutability": "nonpayable",
      "type": "function"
    },
    {
      "inputs": [
        {
          "internalType": "bytes32",
          "name": "_requestId",
          "type": "bytes32"
        },
        {
          "internalType": "bool",
          "name": "_canceled",
          "type": "bool"
        }
      ],
      "name": "fulfillCancel",
      "outputs": [],
      "stateMutability": "nonpayable",
      "type": "function"
    },
    {
      "inputs": [],
      "name": "withdrawLink",
      "outputs": [],
      "stateMutability": "nonpayable",
      "type": "function"
    }
  ],
  "bytecode": "0x608060405260016004553480156200001657600080fd5b50338060008073ffffffffffffffffffffffffffffffffffffffff168273ffffffffffffffffffffffffffffffffffffffff16036200008c576040517f08c379a00000000000000000000000000000000000000000000000000000000081526004016200008390620004a4565b60405180910390fd5b81600660006101000a81548173ffffffffffffffffffffffffffffffffffffffff021916908373ffffffffffffffffffffffffffffffffffffffff160217905550600073ffffffffffffffffffffffffffffffffffffffff168173ffffffffffffffffffffffffffffffffffffffff1614620001145762000113816200028a60201b60201c565b5b5050506200013c73326c977e6efc84e512bb9c30f76e30c160ed06fb620003bb60201b60201c565b6200016173cc79157eb46f5624204f47ab42b3906caa40eab7620003ff60201b60201c565b73326c977e6efc84e512bb9c30f76e30c160ed06fb600860006101000a81548173ffffffffffffffffffffffffffffffffffffffff021916908373ffffffffffffffffffffffffffffffffffffffff16021790555073cc79157eb46f5624204f47ab42b3906caa40eab7600960006101000a81548173ffffffffffffffffffffffffffffffffffffffff021916908373ffffffffffffffffffffffffffffffffffffffff1602179055507f6361393833363663633733313439353762386330313263373266303561656562600a819055507f6331633565393238383038393465623662323764336361653139363730616133600b81905550600a670de0b6b3a76400006001620002729190620004ff565b6200027e919062000579565b600c8190555062000623565b3373ffffffffffffffffffffffffffffffffffffffff168173ffffffffffffffffffffffffffffffffffffffff1603620002fb576040517f08c379a0000000000000000000000000000000000000000000000000000000008152600401620002f29062000601565b60405180910390fd5b80600760006101000a81548173ffffffffffffffffffffffffffffffffffffffff021916908373ffffffffffffffffffffffffffffffffffffffff1602179055508073ffffffffffffffffffffffffffffffffffffffff16600660009054906101000a900473ffffffffffffffffffffffffffffffffffffffff1673ffffffffffffffffffffffffffffffffffffffff167fed8889f560326eb138920d842192f0eb3dd22b4f139c87a2c57538e05bae127860405160405180910390a350565b80600260006101000a81548173ffffffffffffffffffffffffffffffffffffffff021916908373ffffffffffffffffffffffffffffffffffffffff16021790555050565b80600360006101000a81548173ffffffffffffffffffffffffffffffffffffffff021916908373ffffffffffffffffffffffffffffffffffffffff16021790555050565b600082825260208201905092915050565b7f43616e6e6f7420736574206f776e657220746f207a65726f0000000000000000600082015250565b60006200048c60188362000443565b9150620004998262000454565b602082019050919050565b60006020820190508181036000830152620004bf816200047d565b9050919050565b6000819050919050565b7f4e487b7100000000000000000000000000000000000000000000000000000000600052601160045260246000fd5b60006200050c82620004c6565b91506200051983620004c6565b92508282026200052981620004c6565b91508282048414831517620005435762000542620004d0565b5b5092915050565b7f4e487b7100000000000000000000000000000000000000000000000000000000600052601260045260246000fd5b60006200058682620004c6565b91506200059383620004c6565b925082620005a657620005a56200054a565b5b828204905092915050565b7f43616e6e6f74207472616e7366657220746f2073656c66000000000000000000600082015250565b6000620005e960178362000443565b9150620005f682620005b1565b602082019050919050565b600060208201905081810360008301526200061c81620005da565b9050919050565b6130d380620006336000396000f3fe608060405234801561001057600080fd5b50600436106100935760003560e01c806379ba50971161006657806379ba50971461011c5780638da5cb5b146101265780638dc654a214610144578063a84f545c1461014e578063f2fde38b1461017e57610093565b8063223ce0a9146100985780632e848609146100b45780633c159b0a146100e4578063507e788814610100575b600080fd5b6100b260048036038101906100ad9190611db5565b61019a565b005b6100ce60048036038101906100c99190611e90565b610574565b6040516100db9190611f13565b60405180910390f35b6100fe60048036038101906100f99190611f2e565b610760565b005b61011a60048036038101906101159190611f6e565b610ab3565b005b610124610bee565b005b61012e610d85565b60405161013b9190611ffc565b60405180910390f35b61014c610daf565b005b61016860048036038101906101639190611f6e565b610efc565b6040516101759190611f13565b60405180910390f35b61019860048036038101906101939190612043565b611089565b005b600960009054906101000a900473ffffffffffffffffffffffffffffffffffffffff1673ffffffffffffffffffffffffffffffffffffffff163373ffffffffffffffffffffffffffffffffffffffff161461022a576040517f08c379a0000000000000000000000000000000000000000000000000000000008152600401610221906120cd565b60405180910390fd5b816005600082815260200190815260200160002060009054906101000a900473ffffffffffffffffffffffffffffffffffffffff1673ffffffffffffffffffffffffffffffffffffffff163373ffffffffffffffffffffffffffffffffffffffff16146102cc576040517f08c379a00000000000000000000000000000000000000000000000000000000081526004016102c39061215f565b60405180910390fd5b6005600082815260200190815260200160002060006101000a81549073ffffffffffffffffffffffffffffffffffffffff0219169055807f7cc135e0cebb02c3480ae5d74d377283180a2601f8f644edf7987b009316c63a60405160405180910390a2811561056f576000600d60008581526020019081526020016000206040518060800160405290816000820160009054906101000a900473ffffffffffffffffffffffffffffffffffffffff1673ffffffffffffffffffffffffffffffffffffffff1673ffffffffffffffffffffffffffffffffffffffff168152602001600182015481526020016002820180546103c5906121ae565b80601f01602080910402602001604051908101604052809291908181526020018280546103f1906121ae565b801561043e5780601f106104135761010080835404028352916020019161043e565b820191906000526020600020905b81548152906001019060200180831161042157829003601f168201915b50505050508152602001600382015481525050905060005b600e826040015160405161046a9190612250565b90815260200160405180910390208054905081101561056c57600e82604001516040516104979190612250565b908152602001604051809103902081815481106104b7576104b6612267565b5b906000526020600020906002020160000160009054906101000a900473ffffffffffffffffffffffffffffffffffffffff1673ffffffffffffffffffffffffffffffffffffffff1663cba676d78360400151866040518363ffffffff1660e01b81526004016105279291906122ef565b600060405180830381600087803b15801561054157600080fd5b505af1158015610555573d6000803e3d6000fd5b5050505080806105649061234e565b915050610456565b50505b505050565b60008061058b600a5430633c159b0a60e01b61109d565b90506105f86040518060400160405280600381526020017f676574000000000000000000000000000000000000000000000000000000000081525086866040516020016105d9929190612462565b604051602081830303815290604052836110ce9092919063ffffffff16565b6106776040518060400160405280600481526020017f70617468000000000000000000000000000000000000000000000000000000008152506040518060400160405280600481526020017f7269736b00000000000000000000000000000000000000000000000000000000815250836110ce9092919063ffffffff16565b6106c26040518060400160405280600581526020017f74696d65730000000000000000000000000000000000000000000000000000008152506001836111019092919063ffffffff16565b60006106d082600c54611134565b90506000600d60008381526020019081526020016000209050338160000160006101000a81548173ffffffffffffffffffffffffffffffffffffffff021916908373ffffffffffffffffffffffffffffffffffffffff160217905550878160010181905550868682600201918261074892919061266c565b50848160030181905550819350505050949350505050565b600960009054906101000a900473ffffffffffffffffffffffffffffffffffffffff1673ffffffffffffffffffffffffffffffffffffffff163373ffffffffffffffffffffffffffffffffffffffff16146107f0576040517f08c379a00000000000000000000000000000000000000000000000000000000081526004016107e7906120cd565b60405180910390fd5b816005600082815260200190815260200160002060009054906101000a900473ffffffffffffffffffffffffffffffffffffffff1673ffffffffffffffffffffffffffffffffffffffff163373ffffffffffffffffffffffffffffffffffffffff1614610892576040517f08c379a00000000000000000000000000000000000000000000000000000000081526004016108899061215f565b60405180910390fd5b6005600082815260200190815260200160002060006101000a81549073ffffffffffffffffffffffffffffffffffffffff0219169055807f7cc135e0cebb02c3480ae5d74d377283180a2601f8f644edf7987b009316c63a60405160405180910390a26000821115610aae576000600d60008581526020019081526020016000206040518060800160405290816000820160009054906101000a900473ffffffffffffffffffffffffffffffffffffffff1673ffffffffffffffffffffffffffffffffffffffff1673ffffffffffffffffffffffffffffffffffffffff1681526020016001820154815260200160028201805461098e906121ae565b80601f01602080910402602001604051908101604052809291908181526020018280546109ba906121ae565b8015610a075780601f106109dc57610100808354040283529160200191610a07565b820191906000526020600020905b8154815290600101906020018083116109ea57829003601f168201915b505050505081526020016003820154815250509050806000015173ffffffffffffffffffffffffffffffffffffffff1663bd8624e682602001516064868560600151610a53919061273c565b610a5d91906127ad565b6040518363ffffffff1660e01b8152600401610a7a9291906127ed565b600060405180830381600087803b158015610a9457600080fd5b505af1158015610aa8573d6000803e3d6000fd5b50505050505b505050565b610abb611c86565b33816000019073ffffffffffffffffffffffffffffffffffffffff16908173ffffffffffffffffffffffffffffffffffffffff168152505082828080601f016020809104026020016040519081016040528093929190818152602001838380828437600081840152601f19601f820116905080830192505050505050508160200181905250600e8383604051610b52929190612816565b908152602001604051809103902081908060018154018082558091505060019003906000526020600020906002020160009091909190915060008201518160000160006101000a81548173ffffffffffffffffffffffffffffffffffffffff021916908373ffffffffffffffffffffffffffffffffffffffff1602179055506020820151816001019081610be6919061282f565b505050505050565b600760009054906101000a900473ffffffffffffffffffffffffffffffffffffffff1673ffffffffffffffffffffffffffffffffffffffff163373ffffffffffffffffffffffffffffffffffffffff1614610c7e576040517f08c379a0000000000000000000000000000000000000000000000000000000008152600401610c759061294d565b60405180910390fd5b6000600660009054906101000a900473ffffffffffffffffffffffffffffffffffffffff16905033600660006101000a81548173ffffffffffffffffffffffffffffffffffffffff021916908373ffffffffffffffffffffffffffffffffffffffff1602179055506000600760006101000a81548173ffffffffffffffffffffffffffffffffffffffff021916908373ffffffffffffffffffffffffffffffffffffffff1602179055503373ffffffffffffffffffffffffffffffffffffffff168173ffffffffffffffffffffffffffffffffffffffff167f8be0079c531659141344cd1fd0a4f28419497f9722a3daafe3b4186f6b6457e060405160405180910390a350565b6000600660009054906101000a900473ffffffffffffffffffffffffffffffffffffffff16905090565b610db761116b565b6000610dc16111fd565b90508073ffffffffffffffffffffffffffffffffffffffff1663a9059cbb338373ffffffffffffffffffffffffffffffffffffffff166370a08231306040518263ffffffff1660e01b8152600401610e199190611ffc565b602060405180830381865afa158015610e36573d6000803e3d6000fd5b505050506040513d601f19601f82011682018060405250810190610e5a9190612982565b6040518363ffffffff1660e01b8152600401610e779291906129af565b6020604051808303816000875af1158015610e96573d6000803e3d6000fd5b505050506040513d601f19601f82011682018060405250810190610eba91906129ed565b610ef9576040517f08c379a0000000000000000000000000000000000000000000000000000000008152600401610ef090612a66565b60405180910390fd5b50565b600080610f13600b543063223ce0a960e01b61109d565b9050610f806040518060400160405280600381526020017f67657400000000000000000000000000000000000000000000000000000000008152508585604051602001610f61929190612462565b604051602081830303815290604052836110ce9092919063ffffffff16565b610fff6040518060400160405280600481526020017f70617468000000000000000000000000000000000000000000000000000000008152506040518060400160405280600881526020017f63616e63656c6564000000000000000000000000000000000000000000000000815250836110ce9092919063ffffffff16565b600061100d82600c54611134565b90506000600d60008381526020019081526020016000209050338160000160006101000a81548173ffffffffffffffffffffffffffffffffffffffff021916908373ffffffffffffffffffffffffffffffffffffffff160217905550858582600201918261107c92919061266c565b5081935050505092915050565b61109161116b565b61109a81611227565b50565b6110a5611cb6565b6110ad611cb6565b6110c485858584611355909392919063ffffffff16565b9150509392505050565b6110e582846080015161140590919063ffffffff16565b6110fc81846080015161140590919063ffffffff16565b505050565b61111882846080015161140590919063ffffffff16565b61112f81846080015161142a90919063ffffffff16565b505050565b6000611163600360009054906101000a900473ffffffffffffffffffffffffffffffffffffffff1684846114d7565b905092915050565b600660009054906101000a900473ffffffffffffffffffffffffffffffffffffffff1673ffffffffffffffffffffffffffffffffffffffff163373ffffffffffffffffffffffffffffffffffffffff16146111fb576040517f08c379a00000000000000000000000000000000000000000000000000000000081526004016111f290612ad2565b60405180910390fd5b565b6000600260009054906101000a900473ffffffffffffffffffffffffffffffffffffffff16905090565b3373ffffffffffffffffffffffffffffffffffffffff168173ffffffffffffffffffffffffffffffffffffffff1603611295576040517f08c379a000000000000000000000000000000000000000000000000000000000815260040161128c90612b3e565b60405180910390fd5b80600760006101000a81548173ffffffffffffffffffffffffffffffffffffffff021916908373ffffffffffffffffffffffffffffffffffffffff1602179055508073ffffffffffffffffffffffffffffffffffffffff16600660009054906101000a900473ffffffffffffffffffffffffffffffffffffffff1673ffffffffffffffffffffffffffffffffffffffff167fed8889f560326eb138920d842192f0eb3dd22b4f139c87a2c57538e05bae127860405160405180910390a350565b61135d611cb6565b61136d85608001516101006115a3565b508385600001818152505082856020019073ffffffffffffffffffffffffffffffffffffffff16908173ffffffffffffffffffffffffffffffffffffffff16815250508185604001907bffffffffffffffffffffffffffffffffffffffffffffffffffffffff191690817bffffffffffffffffffffffffffffffffffffffffffffffffffffffff191681525050849050949350505050565b611412826003835161160d565b611425818361179290919063ffffffff16565b505050565b7fffffffffffffffffffffffffffffffffffffffffffffffff00000000000000008112156114615761145c82826117b4565b6114d3565b67ffffffffffffffff8113156114805761147b828261182b565b6114d2565b60008112611499576114948260008361160d565b6114d1565b6114d0826001837fffffffffffffffffffffffffffffffffffffffffffffffffffffffffffffffff6114cb9190612b68565b61160d565b5b5b5b5050565b60008060045490506001816114ec9190612bab565b6004819055506000634042994660e01b60008087600001513089604001518760018c608001516000015160405160240161152d989796959493929190612c6f565b604051602081830303815290604052907bffffffffffffffffffffffffffffffffffffffffffffffffffffffff19166020820180517bffffffffffffffffffffffffffffffffffffffffffffffffffffffff8381831617835250505050905061159886838684611877565b925050509392505050565b6115ab611d23565b60006020836115ba9190612cf4565b146115e6576020826115cc9190612cf4565b60206115d89190612d25565b826115e39190612bab565b91505b81836020018181525050604051808452600081528281016020016040525082905092915050565b60178167ffffffffffffffff16116116445761163e8160058460ff16901b60ff161784611a0c90919063ffffffff16565b5061178d565b60ff8167ffffffffffffffff161161169a57611673601860058460ff16901b1784611a0c90919063ffffffff16565b506116948167ffffffffffffffff16600185611a2c9092919063ffffffff16565b5061178c565b61ffff8167ffffffffffffffff16116116f1576116ca601960058460ff16901b1784611a0c90919063ffffffff16565b506116eb8167ffffffffffffffff16600285611a2c9092919063ffffffff16565b5061178b565b63ffffffff8167ffffffffffffffff161161174a57611723601a60058460ff16901b1784611a0c90919063ffffffff16565b506117448167ffffffffffffffff16600485611a2c9092919063ffffffff16565b5061178a565b611767601b60058460ff16901b1784611a0c90919063ffffffff16565b506117888167ffffffffffffffff16600885611a2c9092919063ffffffff16565b505b5b5b5b505050565b61179a611d23565b6117ac83846000015151848551611a4e565b905092915050565b6117d260036005600660ff16901b1783611a0c90919063ffffffff16565b5061182782827fffffffffffffffffffffffffffffffffffffffffffffffffffffffffffffffff6118039190612b68565b6040516020016118139190612d59565b604051602081830303815290604052611b3d565b5050565b61184960026005600660ff16901b1783611a0c90919063ffffffff16565b50611873828260405160200161185f9190612d59565b604051602081830303815290604052611b3d565b5050565b6000308460405160200161188c929190612e23565b604051602081830303815290604052805190602001209050846005600083815260200190815260200160002060006101000a81548173ffffffffffffffffffffffffffffffffffffffff021916908373ffffffffffffffffffffffffffffffffffffffff160217905550807fb5e6e01e79f91267dc17b4e6314d5d4d03593d2ceee0fbb452b750bd70ea5af960405160405180910390a2600260009054906101000a900473ffffffffffffffffffffffffffffffffffffffff1673ffffffffffffffffffffffffffffffffffffffff16634000aea08685856040518463ffffffff1660e01b815260040161198293929190612e4f565b6020604051808303816000875af11580156119a1573d6000803e3d6000fd5b505050506040513d601f19601f820116820180604052508101906119c591906129ed565b611a04576040517f08c379a00000000000000000000000000000000000000000000000000000000081526004016119fb90612eff565b60405180910390fd5b949350505050565b611a14611d23565b611a248384600001515184611b62565b905092915050565b611a34611d23565b611a45848560000151518585611bb8565b90509392505050565b611a56611d23565b8251821115611a6457600080fd5b84602001518285611a759190612bab565b1115611aaa57611aa9856002611a9a88602001518887611a959190612bab565b611c46565b611aa4919061273c565b611c62565b5b600080865180518760208301019350808887011115611ac95787860182525b60208701925050505b60208410611b105780518252602082611aeb9190612bab565b9150602081611afa9190612bab565b9050602084611b099190612d25565b9350611ad2565b60006001856020036101000a03905080198251168184511681811785525050508692505050949350505050565b611b4a826002835161160d565b611b5d818361179290919063ffffffff16565b505050565b611b6a611d23565b83602001518310611b9057611b8f8460028660200151611b8a919061273c565b611c62565b5b83518051602085830101848153818603611bab576001820183525b5050508390509392505050565b611bc0611d23565b84602001518483611bd19190612bab565b1115611bf957611bf88560028685611be99190612bab565b611bf3919061273c565b611c62565b5b6000600183610100611c0b9190613052565b611c159190612d25565b90508551838682010185831982511617815281518588011115611c385784870182525b505085915050949350505050565b600081831115611c5857829050611c5c565b8190505b92915050565b600082600001519050611c7583836115a3565b50611c808382611792565b50505050565b6040518060400160405280600073ffffffffffffffffffffffffffffffffffffffff168152602001606081525090565b6040518060a0016040528060008019168152602001600073ffffffffffffffffffffffffffffffffffffffff16815260200160007bffffffffffffffffffffffffffffffffffffffffffffffffffffffff1916815260200160008152602001611d1d611d23565b81525090565b604051806040016040528060608152602001600081525090565b600080fd5b600080fd5b6000819050919050565b611d5a81611d47565b8114611d6557600080fd5b50565b600081359050611d7781611d51565b92915050565b60008115159050919050565b611d9281611d7d565b8114611d9d57600080fd5b50565b600081359050611daf81611d89565b92915050565b60008060408385031215611dcc57611dcb611d3d565b5b6000611dda85828601611d68565b9250506020611deb85828601611da0565b9150509250929050565b6000819050919050565b611e0881611df5565b8114611e1357600080fd5b50565b600081359050611e2581611dff565b92915050565b600080fd5b600080fd5b600080fd5b60008083601f840112611e5057611e4f611e2b565b5b8235905067ffffffffffffffff811115611e6d57611e6c611e30565b5b602083019150836001820283011115611e8957611e88611e35565b5b9250929050565b60008060008060608587031215611eaa57611ea9611d3d565b5b6000611eb887828801611e16565b945050602085013567ffffffffffffffff811115611ed957611ed8611d42565b5b611ee587828801611e3a565b93509350506040611ef887828801611e16565b91505092959194509250565b611f0d81611d47565b82525050565b6000602082019050611f286000830184611f04565b92915050565b60008060408385031215611f4557611f44611d3d565b5b6000611f5385828601611d68565b9250506020611f6485828601611e16565b9150509250929050565b60008060208385031215611f8557611f84611d3d565b5b600083013567ffffffffffffffff811115611fa357611fa2611d42565b5b611faf85828601611e3a565b92509250509250929050565b600073ffffffffffffffffffffffffffffffffffffffff82169050919050565b6000611fe682611fbb565b9050919050565b611ff681611fdb565b82525050565b60006020820190506120116000830184611fed565b92915050565b61202081611fdb565b811461202b57600080fd5b50565b60008135905061203d81612017565b92915050565b60006020828403121561205957612058611d3d565b5b60006120678482850161202e565b91505092915050565b600082825260208201905092915050565b7f6f6e6c79436861696e6c696e6b00000000000000000000000000000000000000600082015250565b60006120b7600d83612070565b91506120c282612081565b602082019050919050565b600060208201905081810360008301526120e6816120aa565b9050919050565b7f536f75726365206d75737420626520746865206f7261636c65206f662074686560008201527f2072657175657374000000000000000000000000000000000000000000000000602082015250565b6000612149602883612070565b9150612154826120ed565b604082019050919050565b600060208201905081810360008301526121788161213c565b9050919050565b7f4e487b7100000000000000000000000000000000000000000000000000000000600052602260045260246000fd5b600060028204905060018216806121c657607f821691505b6020821081036121d9576121d861217f565b5b50919050565b600081519050919050565b600081905092915050565b60005b838110156122135780820151818401526020810190506121f8565b60008484015250505050565b600061222a826121df565b61223481856121ea565b93506122448185602086016121f5565b80840191505092915050565b600061225c828461221f565b915081905092915050565b7f4e487b7100000000000000000000000000000000000000000000000000000000600052603260045260246000fd5b6000601f19601f8301169050919050565b60006122b2826121df565b6122bc8185612070565b93506122cc8185602086016121f5565b6122d581612296565b840191505092915050565b6122e981611d7d565b82525050565b6000604082019050818103600083015261230981856122a7565b905061231860208301846122e0565b9392505050565b7f4e487b7100000000000000000000000000000000000000000000000000000000600052601160045260246000fd5b600061235982611df5565b91507fffffffffffffffffffffffffffffffffffffffffffffffffffffffffffffffff820361238b5761238a61231f565b5b600182019050919050565b7f68747470733a2f2f6170692e666c69676874732e6761626f752e636f6f6c2f6660008201527f6c69676874732f666c696768744e756d6265723f666c696768744e756d62657260208201527f3d00000000000000000000000000000000000000000000000000000000000000604082015250565b60006124186041836121ea565b915061242382612396565b604182019050919050565b82818337600083830152505050565b600061244983856121ea565b935061245683858461242e565b82840190509392505050565b600061246d8261240b565b915061247a82848661243d565b91508190509392505050565b600082905092915050565b7f4e487b7100000000000000000000000000000000000000000000000000000000600052604160045260246000fd5b60008190508160005260206000209050919050565b60006020601f8301049050919050565b600082821b905092915050565b6000600883026125227fffffffffffffffffffffffffffffffffffffffffffffffffffffffffffffffff826124e5565b61252c86836124e5565b95508019841693508086168417925050509392505050565b6000819050919050565b600061256961256461255f84611df5565b612544565b611df5565b9050919050565b6000819050919050565b6125838361254e565b61259761258f82612570565b8484546124f2565b825550505050565b600090565b6125ac61259f565b6125b781848461257a565b505050565b5b818110156125db576125d06000826125a4565b6001810190506125bd565b5050565b601f821115612620576125f1816124c0565b6125fa846124d5565b81016020851015612609578190505b61261d612615856124d5565b8301826125bc565b50505b505050565b600082821c905092915050565b600061264360001984600802612625565b1980831691505092915050565b600061265c8383612632565b9150826002028217905092915050565b6126768383612486565b67ffffffffffffffff81111561268f5761268e612491565b5b61269982546121ae565b6126a48282856125df565b6000601f8311600181146126d357600084156126c1578287013590505b6126cb8582612650565b865550612733565b601f1984166126e1866124c0565b60005b82811015612709578489013582556001820191506020850194506020810190506126e4565b868310156127265784890135612722601f891682612632565b8355505b6001600288020188555050505b50505050505050565b600061274782611df5565b915061275283611df5565b925082820261276081611df5565b915082820484148315176127775761277661231f565b5b5092915050565b7f4e487b7100000000000000000000000000000000000000000000000000000000600052601260045260246000fd5b60006127b882611df5565b91506127c383611df5565b9250826127d3576127d261277e565b5b828204905092915050565b6127e781611df5565b82525050565b600060408201905061280260008301856127de565b61280f60208301846127de565b9392505050565b600061282382848661243d565b91508190509392505050565b612838826121df565b67ffffffffffffffff81111561285157612850612491565b5b61285b82546121ae565b6128668282856125df565b600060209050601f8311600181146128995760008415612887578287015190505b6128918582612650565b8655506128f9565b601f1984166128a7866124c0565b60005b828110156128cf578489015182556001820191506020850194506020810190506128aa565b868310156128ec57848901516128e8601f891682612632565b8355505b6001600288020188555050505b505050505050565b7f4d7573742062652070726f706f736564206f776e657200000000000000000000600082015250565b6000612937601683612070565b915061294282612901565b602082019050919050565b600060208201905081810360008301526129668161292a565b9050919050565b60008151905061297c81611dff565b92915050565b60006020828403121561299857612997611d3d565b5b60006129a68482850161296d565b91505092915050565b60006040820190506129c46000830185611fed565b6129d160208301846127de565b9392505050565b6000815190506129e781611d89565b92915050565b600060208284031215612a0357612a02611d3d565b5b6000612a11848285016129d8565b91505092915050565b7f556e61626c6520746f207472616e736665720000000000000000000000000000600082015250565b6000612a50601283612070565b9150612a5b82612a1a565b602082019050919050565b60006020820190508181036000830152612a7f81612a43565b9050919050565b7f4f6e6c792063616c6c61626c65206279206f776e657200000000000000000000600082015250565b6000612abc601683612070565b9150612ac782612a86565b602082019050919050565b60006020820190508181036000830152612aeb81612aaf565b9050919050565b7f43616e6e6f74207472616e7366657220746f2073656c66000000000000000000600082015250565b6000612b28601783612070565b9150612b3382612af2565b602082019050919050565b60006020820190508181036000830152612b5781612b1b565b9050919050565b6000819050919050565b6000612b7382612b5e565b9150612b7e83612b5e565b9250828203905081811260008412168282136000851215161715612ba557612ba461231f565b5b92915050565b6000612bb682611df5565b9150612bc183611df5565b9250828201905080821115612bd957612bd861231f565b5b92915050565b60007fffffffff0000000000000000000000000000000000000000000000000000000082169050919050565b612c1481612bdf565b82525050565b600081519050919050565b600082825260208201905092915050565b6000612c4182612c1a565b612c4b8185612c25565b9350612c5b8185602086016121f5565b612c6481612296565b840191505092915050565b600061010082019050612c85600083018b611fed565b612c92602083018a6127de565b612c9f6040830189611f04565b612cac6060830188611fed565b612cb96080830187612c0b565b612cc660a08301866127de565b612cd360c08301856127de565b81810360e0830152612ce58184612c36565b90509998505050505050505050565b6000612cff82611df5565b9150612d0a83611df5565b925082612d1a57612d1961277e565b5b828206905092915050565b6000612d3082611df5565b9150612d3b83611df5565b9250828203905081811115612d5357612d5261231f565b5b92915050565b6000602082019050612d6e60008301846127de565b92915050565b6000612d8f612d8a612d8584611fbb565b612544565b611fbb565b9050919050565b6000612da182612d74565b9050919050565b6000612db382612d96565b9050919050565b60008160601b9050919050565b6000612dd282612dba565b9050919050565b6000612de482612dc7565b9050919050565b612dfc612df782612da8565b612dd9565b82525050565b6000819050919050565b612e1d612e1882611df5565b612e02565b82525050565b6000612e2f8285612deb565b601482019150612e3f8284612e0c565b6020820191508190509392505050565b6000606082019050612e646000830186611fed565b612e7160208301856127de565b8181036040830152612e838184612c36565b9050949350505050565b7f756e61626c6520746f207472616e73666572416e6443616c6c20746f206f726160008201527f636c650000000000000000000000000000000000000000000000000000000000602082015250565b6000612ee9602383612070565b9150612ef482612e8d565b604082019050919050565b60006020820190508181036000830152612f1881612edc565b9050919050565b60008160011c9050919050565b6000808291508390505b6001851115612f7657808604811115612f5257612f5161231f565b5b6001851615612f615780820291505b8081029050612f6f85612f1f565b9450612f36565b94509492505050565b600082612f8f576001905061304b565b81612f9d576000905061304b565b8160018114612fb35760028114612fbd57612fec565b600191505061304b565b60ff841115612fcf57612fce61231f565b5b8360020a915084821115612fe657612fe561231f565b5b5061304b565b5060208310610133831016604e8410600b84101617156130215782820a90508381111561301c5761301b61231f565b5b61304b565b61302e8484846001612f2c565b925090508184048111156130455761304461231f565b5b81810290505b9392505050565b600061305d82611df5565b915061306883611df5565b92506130957fffffffffffffffffffffffffffffffffffffffffffffffffffffffffffffffff8484612f7f565b90509291505056fea26469706673582212208f45dc178e89f53a189cfe3a5d32ed66b8f96e4f8dfc980488e0a7318b251f6964736f6c63430008110033",
  "immutableReferences": {},
  "source": "// SPDX-License-Identifier: MIT\npragma solidity ^0.8.17;\n\nimport \"@chainlink/contracts/src/v0.8/ChainlinkClient.sol\";\nimport \"@chainlink/contracts/src/v0.8/ConfirmedOwner.sol\";\n\nimport \"./DAO.sol\";\n\n/// @title TechCare Oracle\n/// @author Victor G\n/// @notice TechCare Oracle smart contract can be used by TechCare DAO smart contract to estimate risk & subscribe to an event\n/// @dev TechCare Oracle smart contract can be used by TechCare DAO smart contract to estimate risk & subscribe to an event\ncontract Oracle is ChainlinkClient, ConfirmedOwner {\n    using Chainlink for Chainlink.Request;\n\n    address private _chainlinkTokenAddress;\n    address private _chainlinkOracleAddress;\n    bytes32 private jobIdGetUint256;\n    bytes32 private jobIdGetBool;\n    uint256 private fee;\n\n    struct Request {\n      address fromAddress;\n      uint256 fromID;\n      string fromFlightNumber;\n      uint256 fromAmount;\n    }\n\n    struct Subscription {\n      address addr;\n      string flightNumber;\n    }\n\n    mapping(bytes32 => Request) requests;\n    mapping(string => Subscription[]) subscriptions;\n\n    /// @notice Restrict call to chainlink\n    modifier onlyChainlink() {\n        require(msg.sender == _chainlinkOracleAddress, \"onlyChainlink\");\n        _;\n    }\n\n    /**\n     * @notice Initialize the link token and target oracle\n     *\n     * Goerli Testnet details:\n     * Link Token: 0x326C977E6efc84E512bB9C30f76E30c160eD06FB\n     * Oracle: 0xCC79157eb46F5624204f47AB42b3906cAA40eaB7 (Chainlink DevRel)\n     * jobIdGetUint256: ca98366cc7314957b8c012c72f05aeeb\n     * jobIdGetBool: ca98366cc7314957b8c012c72f05aeeb\n     *\n     */\n    constructor() ConfirmedOwner(msg.sender) {\n        setChainlinkToken(0x326C977E6efc84E512bB9C30f76E30c160eD06FB);\n        setChainlinkOracle(0xCC79157eb46F5624204f47AB42b3906cAA40eaB7);\n        _chainlinkTokenAddress = 0x326C977E6efc84E512bB9C30f76E30c160eD06FB;\n        _chainlinkOracleAddress = 0xCC79157eb46F5624204f47AB42b3906cAA40eaB7;\n        jobIdGetUint256 = \"ca98366cc7314957b8c012c72f05aeeb\";\n        jobIdGetBool = \"c1c5e92880894eb6b27d3cae19670aa3\";\n        fee = (1 * LINK_DIVISIBILITY) / 10; // 0,1 * 10**18 (Varies by network and job)\n    }\n\n    /// @notice Get risk based on flight number and amount\n    /// @param _fromID Premium's ID\n    /// @param _flightNumber Premium's flight number\n    /// @param _amount Premium's amount\n    function requestRisk(uint256 _fromID, string calldata _flightNumber, uint256 _amount) external returns (bytes32 requestId) {\n        Chainlink.Request memory req = buildChainlinkRequest(jobIdGetUint256, address(this), this.fulfillRisk.selector);\n\n        req.add(\"get\", string.concat(\"https://api.flights.gabou.cool/flights/flightNumber?flightNumber=\", _flightNumber));\n        req.add(\"path\", \"risk\");\n        req.addInt(\"times\", 1);\n\n        bytes32 reqId = sendChainlinkRequest(req, fee);\n\n        Request storage request = requests[reqId];\n        request.fromAddress = msg.sender;\n        request.fromID = _fromID;\n        request.fromFlightNumber = _flightNumber;\n        request.fromAmount = _amount;\n\n        return reqId;\n    }\n\n    /// @notice Return risk based on flight number and amount\n    /// @dev Only chainlink\n    /// @param _requestId Request's ID\n    /// @param _risk Premium's risk\n    function fulfillRisk(bytes32 _requestId, uint256 _risk) external onlyChainlink recordChainlinkFulfillment(_requestId) {\n        if(_risk > 0) {\n          Request memory request = requests[_requestId];\n          DAO(request.fromAddress).setPremiumPrice(request.fromID, request.fromAmount * _risk / 100);\n        }\n    }\n\n    /// @notice Subscribe to flight number status update\n    /// @dev Function should set an alarm clock to automatically handle requestCancel once flight should have landed\n    /// @param _flightNumber Flight number\n    function subscribe(string calldata _flightNumber) external {\n      Subscription memory subscription;\n      subscription.addr = msg.sender;\n      subscription.flightNumber = _flightNumber;\n      subscriptions[_flightNumber].push(subscription);\n    }\n\n    /// @notice Get cancel status based on flight number\n    /// @param _flightNumber Premium's flight number\n    function requestCancel(string calldata _flightNumber) external returns (bytes32 requestId) {\n        Chainlink.Request memory req = buildChainlinkRequest(jobIdGetBool, address(this), this.fulfillCancel.selector);\n\n        req.add(\"get\", string.concat(\"https://api.flights.gabou.cool/flights/flightNumber?flightNumber=\", _flightNumber));\n        req.add(\"path\", \"canceled\");\n\n        bytes32 reqId = sendChainlinkRequest(req, fee);\n\n        Request storage request = requests[reqId];\n        request.fromAddress = msg.sender;\n        request.fromFlightNumber = _flightNumber;\n\n        return reqId;\n    }\n\n    /// @notice Return cancel status based on flight number\n    /// @dev Only chainlink\n    /// @param _requestId Request's ID\n    /// @param _canceled Premium's flight status\n    function fulfillCancel(bytes32 _requestId, bool _canceled) external onlyChainlink recordChainlinkFulfillment(_requestId) {\n        if(_canceled) {\n          Request memory request = requests[_requestId];\n\n          for (uint256 i = 0; i < subscriptions[request.fromFlightNumber].length; i++) {\n            DAO(subscriptions[request.fromFlightNumber][i].addr).setStatus(request.fromFlightNumber, _canceled);\n          }\n        }\n    }\n\n    /// @notice Withdraw chainlink\n    /// @dev Used to withdraw remaining chainlink tokens locked on smart contract\n    function withdrawLink() external onlyOwner {\n        LinkTokenInterface link = LinkTokenInterface(chainlinkTokenAddress());\n        require(\n            link.transfer(msg.sender, link.balanceOf(address(this))),\n            \"Unable to transfer\"\n        );\n    }\n}\n",
  "sourcePath": "/Users/gabou/Sites/alyra-project-4/truffle/contracts/Oracle.sol",
  "compiler": {
    "name": "solc",
    "version": "0.8.17+commit.8df45f5f.Emscripten.clang"
  },
  "schemaVersion": "3.4.10",
  "updatedAt": "2022-12-12T05:08:44.885Z",
  "networkType": "ethereum",
  "devdoc": {
    "author": "Victor G",
    "details": "TechCare Oracle smart contract can be used by TechCare DAO smart contract to estimate risk & subscribe to an event",
    "kind": "dev",
    "methods": {
      "fulfillCancel(bytes32,bool)": {
        "details": "Only chainlink",
        "params": {
          "_canceled": "Premium's flight status",
          "_requestId": "Request's ID"
        }
      },
      "fulfillRisk(bytes32,uint256)": {
        "details": "Only chainlink",
        "params": {
          "_requestId": "Request's ID",
          "_risk": "Premium's risk"
        }
      },
      "requestCancel(string)": {
        "params": {
          "_flightNumber": "Premium's flight number"
        }
      },
      "requestRisk(uint256,string,uint256)": {
        "params": {
          "_amount": "Premium's amount",
          "_flightNumber": "Premium's flight number",
          "_fromID": "Premium's ID"
        }
      },
      "subscribe(string)": {
        "details": "Function should set an alarm clock to automatically handle requestCancel once flight should have landed",
        "params": {
          "_flightNumber": "Flight number"
        }
      },
      "withdrawLink()": {
        "details": "Used to withdraw remaining chainlink tokens locked on smart contract"
      }
    },
    "title": "TechCare Oracle",
    "version": 1
  },
  "userdoc": {
    "kind": "user",
    "methods": {
      "acceptOwnership()": {
        "notice": "Allows an ownership transfer to be completed by the recipient."
      },
      "constructor": {
        "notice": "Initialize the link token and target oracle Goerli Testnet details: Link Token: 0x326C977E6efc84E512bB9C30f76E30c160eD06FB Oracle: 0xCC79157eb46F5624204f47AB42b3906cAA40eaB7 (Chainlink DevRel) jobIdGetUint256: ca98366cc7314957b8c012c72f05aeeb jobIdGetBool: ca98366cc7314957b8c012c72f05aeeb"
      },
      "fulfillCancel(bytes32,bool)": {
        "notice": "Return cancel status based on flight number"
      },
      "fulfillRisk(bytes32,uint256)": {
        "notice": "Return risk based on flight number and amount"
      },
      "owner()": {
        "notice": "Get the current owner"
      },
      "requestCancel(string)": {
        "notice": "Get cancel status based on flight number"
      },
      "requestRisk(uint256,string,uint256)": {
        "notice": "Get risk based on flight number and amount"
      },
      "subscribe(string)": {
        "notice": "Subscribe to flight number status update"
      },
      "transferOwnership(address)": {
        "notice": "Allows an owner to begin transferring ownership to a new address, pending."
      },
      "withdrawLink()": {
        "notice": "Withdraw chainlink"
      }
    },
    "notice": "TechCare Oracle smart contract can be used by TechCare DAO smart contract to estimate risk & subscribe to an event",
    "version": 1
  }
}