{
  "contractName": "OracleTmp",
  "abi": [
    {
      "inputs": [
        {
          "internalType": "string",
          "name": "_flightNumber",
          "type": "string"
        },
        {
          "internalType": "uint256",
          "name": "_amount",
          "type": "uint256"
        },
        {
          "internalType": "uint256",
          "name": "_liquitidy",
          "type": "uint256"
        },
        {
          "internalType": "uint256",
          "name": "_currentSubscribers",
          "type": "uint256"
        }
      ],
      "name": "estimatePremiumPrice",
      "outputs": [],
      "stateMutability": "nonpayable",
      "type": "function"
    },
    {
      "inputs": [
        {
          "internalType": "string",
          "name": "_flightNumber",
          "type": "string"
        }
      ],
      "name": "subscribe",
      "outputs": [],
      "stateMutability": "nonpayable",
      "type": "function"
    },
    {
      "inputs": [
        {
          "internalType": "string",
          "name": "_flightNumber",
          "type": "string"
        },
        {
          "internalType": "bool",
          "name": "_canceled",
          "type": "bool"
        }
      ],
      "name": "updateFlightInfos",
      "outputs": [],
      "stateMutability": "nonpayable",
      "type": "function"
    }
  ],
  "bytecode": "0x608060405234801561001057600080fd5b506102f2806100206000396000f3fe608060405234801561001057600080fd5b50600436106100415760003560e01c8063507e788814610046578063816f1c3f146100625780639c1856161461007e575b600080fd5b610060600480360381019061005b9190610119565b61009a565b005b61007c6004803603810190610077919061019e565b61009e565b005b61009860048036038101906100939190610234565b6100a3565b005b5050565b505050565b5050505050565b600080fd5b600080fd5b600080fd5b600080fd5b600080fd5b60008083601f8401126100d9576100d86100b4565b5b8235905067ffffffffffffffff8111156100f6576100f56100b9565b5b602083019150836001820283011115610112576101116100be565b5b9250929050565b600080602083850312156101305761012f6100aa565b5b600083013567ffffffffffffffff81111561014e5761014d6100af565b5b61015a858286016100c3565b92509250509250929050565b60008115159050919050565b61017b81610166565b811461018657600080fd5b50565b60008135905061019881610172565b92915050565b6000806000604084860312156101b7576101b66100aa565b5b600084013567ffffffffffffffff8111156101d5576101d46100af565b5b6101e1868287016100c3565b935093505060206101f486828701610189565b9150509250925092565b6000819050919050565b610211816101fe565b811461021c57600080fd5b50565b60008135905061022e81610208565b92915050565b6000806000806000608086880312156102505761024f6100aa565b5b600086013567ffffffffffffffff81111561026e5761026d6100af565b5b61027a888289016100c3565b9550955050602061028d8882890161021f565b935050604061029e8882890161021f565b92505060606102af8882890161021f565b915050929550929590935056fea2646970667358221220601b89eb6c7b7f8b5db85a1ec45422388fd326bc862a4f8879ca04cb3f9de0fc64736f6c63430008110033",
  "immutableReferences": {},
  "source": "// SPDX-License-Identifier: MIT\npragma solidity 0.8.17;\n\ncontract OracleTmp {\n\n\n  function estimatePremiumPrice(string calldata _flightNumber, uint256 _amount, uint256 _liquitidy, uint256 _currentSubscribers) external {\n    // calculate risk and return premium price to proceed (IA)\n    // store info with dao address\n    // call setPremiumPrice on DAO\n  }\n\n  function subscribe(string calldata _flightNumber) external {\n    // subscibe to flight infos using chainlink\n  }\n\n  function updateFlightInfos(string calldata _flightNumber, bool _canceled) external {\n    // chainlink call this method once time arrived\n\n    // if flight was not canceled : STOP\n\n    // else : call DAO method to tell it to refund users\n  }\n}\n",
  "sourcePath": "/Users/gabou/Sites/alyra-techcare-dev/truffle/contracts/_Oracle_tmp.sol",
  "compiler": {
    "name": "solc",
    "version": "0.8.17+commit.8df45f5f.Emscripten.clang"
  },
  "schemaVersion": "3.4.10",
  "updatedAt": "2022-12-10T15:55:01.071Z",
  "devdoc": {
    "kind": "dev",
    "methods": {},
    "version": 1
  },
  "userdoc": {
    "kind": "user",
    "methods": {},
    "version": 1
  }
}