{
  "contractName": "OracleOld1",
  "abi": [
    {
      "inputs": [
        {
          "internalType": "uint256",
          "name": "_requestID",
          "type": "uint256"
        },
        {
          "internalType": "string",
          "name": "_flightNumber",
          "type": "string"
        },
        {
          "internalType": "uint128",
          "name": "_amount",
          "type": "uint128"
        }
      ],
      "name": "estimateRisk",
      "outputs": [],
      "stateMutability": "nonpayable",
      "type": "function"
    },
    {
      "inputs": [
        {
          "internalType": "uint256",
          "name": "_requestID",
          "type": "uint256"
        },
        {
          "internalType": "uint256",
          "name": "_risk",
          "type": "uint256"
        }
      ],
      "name": "fullfillRisk",
      "outputs": [],
      "stateMutability": "nonpayable",
      "type": "function"
    },
    {
      "inputs": [
        {
          "internalType": "string",
          "name": "_flightNumber",
          "type": "string"
        }
      ],
      "name": "subscribe",
      "outputs": [],
      "stateMutability": "nonpayable",
      "type": "function"
    },
    {
      "inputs": [
        {
          "internalType": "uint256",
          "name": "_requestID",
          "type": "uint256"
        },
        {
          "internalType": "bool",
          "name": "_canceled",
          "type": "bool"
        }
      ],
      "name": "updateFlightInfos",
      "outputs": [],
      "stateMutability": "nonpayable",
      "type": "function"
    }
  ],
  "bytecode": "0x608060405234801561001057600080fd5b50610b77806100206000396000f3fe608060405234801561001057600080fd5b506004361061004c5760003560e01c8063507e7888146100515780636427aeb01461006d5780639bd4f46914610089578063cc1d68c5146100a5575b600080fd5b61006b6004803603810190610066919061052d565b6100c1565b005b610087600480360381019061008291906105f8565b6100c5565b005b6100a3600480360381019061009e919061066c565b610283565b005b6100bf60048036038101906100ba91906106e4565b61046a565b005b5050565b6100cd61046e565b33816000019073ffffffffffffffffffffffffffffffffffffffff16908173ffffffffffffffffffffffffffffffffffffffff16815250508481602001818152505083838080601f016020809104026020016040519081016040528093929190818152602001838380828437600081840152601f19601f8201169050808301925050505050505081604001819052508181606001906fffffffffffffffffffffffffffffffff1690816fffffffffffffffffffffffffffffffff1681525050600081908060018154018082558091505060019003906000526020600020906004020160009091909190915060008201518160000160006101000a81548173ffffffffffffffffffffffffffffffffffffffff021916908373ffffffffffffffffffffffffffffffffffffffff16021790555060208201518160010155604082015181600201908161021e919061096a565b5060608201518160030160006101000a8154816fffffffffffffffffffffffffffffffff02191690836fffffffffffffffffffffffffffffffff160217905550505061027c60016000805490506102759190610a6b565b6001610283565b5050505050565b600080838154811061029857610297610a9f565b5b90600052602060002090600402016040518060800160405290816000820160009054906101000a900473ffffffffffffffffffffffffffffffffffffffff1673ffffffffffffffffffffffffffffffffffffffff1673ffffffffffffffffffffffffffffffffffffffff168152602001600182015481526020016002820180546103219061078d565b80601f016020809104026020016040519081016040528092919081815260200182805461034d9061078d565b801561039a5780601f1061036f5761010080835404028352916020019161039a565b820191906000526020600020905b81548152906001019060200180831161037d57829003601f168201915b505050505081526020016003820160009054906101000a90046fffffffffffffffffffffffffffffffff166fffffffffffffffffffffffffffffffff166fffffffffffffffffffffffffffffffff16815250509050806000015173ffffffffffffffffffffffffffffffffffffffff16636981eb238260200151600a6040518363ffffffff1660e01b8152600401610433929190610b18565b600060405180830381600087803b15801561044d57600080fd5b505af1158015610461573d6000803e3d6000fd5b50505050505050565b5050565b6040518060800160405280600073ffffffffffffffffffffffffffffffffffffffff168152602001600081526020016060815260200160006fffffffffffffffffffffffffffffffff1681525090565b600080fd5b600080fd5b600080fd5b600080fd5b600080fd5b60008083601f8401126104ed576104ec6104c8565b5b8235905067ffffffffffffffff81111561050a576105096104cd565b5b602083019150836001820283011115610526576105256104d2565b5b9250929050565b60008060208385031215610544576105436104be565b5b600083013567ffffffffffffffff811115610562576105616104c3565b5b61056e858286016104d7565b92509250509250929050565b6000819050919050565b61058d8161057a565b811461059857600080fd5b50565b6000813590506105aa81610584565b92915050565b60006fffffffffffffffffffffffffffffffff82169050919050565b6105d5816105b0565b81146105e057600080fd5b50565b6000813590506105f2816105cc565b92915050565b60008060008060608587031215610612576106116104be565b5b60006106208782880161059b565b945050602085013567ffffffffffffffff811115610641576106406104c3565b5b61064d878288016104d7565b93509350506040610660878288016105e3565b91505092959194509250565b60008060408385031215610683576106826104be565b5b60006106918582860161059b565b92505060206106a28582860161059b565b9150509250929050565b60008115159050919050565b6106c1816106ac565b81146106cc57600080fd5b50565b6000813590506106de816106b8565b92915050565b600080604083850312156106fb576106fa6104be565b5b60006107098582860161059b565b925050602061071a858286016106cf565b9150509250929050565b600081519050919050565b7f4e487b7100000000000000000000000000000000000000000000000000000000600052604160045260246000fd5b7f4e487b7100000000000000000000000000000000000000000000000000000000600052602260045260246000fd5b600060028204905060018216806107a557607f821691505b6020821081036107b8576107b761075e565b5b50919050565b60008190508160005260206000209050919050565b60006020601f8301049050919050565b600082821b905092915050565b6000600883026108207fffffffffffffffffffffffffffffffffffffffffffffffffffffffffffffffff826107e3565b61082a86836107e3565b95508019841693508086168417925050509392505050565b6000819050919050565b600061086761086261085d8461057a565b610842565b61057a565b9050919050565b6000819050919050565b6108818361084c565b61089561088d8261086e565b8484546107f0565b825550505050565b600090565b6108aa61089d565b6108b5818484610878565b505050565b5b818110156108d9576108ce6000826108a2565b6001810190506108bb565b5050565b601f82111561091e576108ef816107be565b6108f8846107d3565b81016020851015610907578190505b61091b610913856107d3565b8301826108ba565b50505b505050565b600082821c905092915050565b600061094160001984600802610923565b1980831691505092915050565b600061095a8383610930565b9150826002028217905092915050565b61097382610724565b67ffffffffffffffff81111561098c5761098b61072f565b5b610996825461078d565b6109a18282856108dd565b600060209050601f8311600181146109d457600084156109c2578287015190505b6109cc858261094e565b865550610a34565b601f1984166109e2866107be565b60005b82811015610a0a578489015182556001820191506020850194506020810190506109e5565b86831015610a275784890151610a23601f891682610930565b8355505b6001600288020188555050505b505050505050565b7f4e487b7100000000000000000000000000000000000000000000000000000000600052601160045260246000fd5b6000610a768261057a565b9150610a818361057a565b9250828203905081811115610a9957610a98610a3c565b5b92915050565b7f4e487b7100000000000000000000000000000000000000000000000000000000600052603260045260246000fd5b610ad78161057a565b82525050565b6000819050919050565b6000610b02610afd610af884610add565b610842565b6105b0565b9050919050565b610b1281610ae7565b82525050565b6000604082019050610b2d6000830185610ace565b610b3a6020830184610b09565b939250505056fea2646970667358221220578a5401cf856d8a9430f6f94877bddfcc50dd29409f9c161c7f9b8f9513802464736f6c63430008110033",
  "immutableReferences": {},
  "source": "// SPDX-License-Identifier: MIT\npragma solidity 0.8.17;\n\ninterface IDAOOld1 {\n\n  struct Premium {\n      address subscriber;\n      string flightNumber;\n      uint128 amount;\n      uint128 price;\n      uint256 validUntil;\n      bool contracted;\n      bool executed;\n  }\n\n  function read() external view returns (uint256);\n\n  function write(uint256 newValue) external;\n\n  function getMinAmount() external view returns (uint256);\n\n  function getMaxAmount() external view returns (uint256);\n\n  function createPremium(string calldata _flightNumber, uint128 _amount) external;\n\n  function setPremiumPrice(uint256 _premiumID, uint128 _price) external;\n\n  function getPremium(uint256 _premiumID) external view returns (Premium memory);\n\n  function contractPremium(uint256 _premiumID) payable external;\n\n}\n\n\ncontract OracleOld1 {\n\n  struct Request {\n    address fromAddress;\n    uint256 fromID;\n    string fromFlightNumber;\n    uint128 fromAmount;\n  }\n  Request[] requests;\n\n  function estimateRisk(uint256 _requestID, string calldata _flightNumber, uint128 _amount) external {\n    // calculate risk and return premium price to proceed (IA)\n    // store info with dao address\n    // call setPremiumPrice on DAO\n    // updateFlightInfos(_requestID)\n    Request memory request;\n    request.fromAddress = msg.sender;\n    request.fromID = _requestID;\n    request.fromFlightNumber = _flightNumber;\n    request.fromAmount = _amount;\n    requests.push(request);\n    fullfillRisk(requests.length - 1, 1);\n  }\n  function fullfillRisk(uint256 _requestID, uint256 _risk) public {\n    Request memory request = requests[_requestID];\n    // IDAOOld1(request.fromAddress).setPremiumPrice(request.fromID, request.fromAmount * _risk / 100);\n    IDAOOld1(request.fromAddress).setPremiumPrice(request.fromID, 10);\n  }\n\n  function subscribe(string calldata _flightNumber) external {\n    // subscibe to flight infos using chainlink\n  }\n\n  function updateFlightInfos(uint256 _requestID, bool _canceled) external {\n    // chainlink call this method once time arrived\n\n    // if flight was not canceled : STOP\n\n    // else : call DAO method to tell it to refund users\n  }\n}\n",
  "sourcePath": "/Users/gabou/Sites/alyra-techcare-dev/truffle/contracts/OracleOld1.sol",
  "compiler": {
    "name": "solc",
    "version": "0.8.17+commit.8df45f5f.Emscripten.clang"
  },
  "schemaVersion": "3.4.10",
  "updatedAt": "2022-12-11T05:47:16.866Z",
  "devdoc": {
    "kind": "dev",
    "methods": {},
    "version": 1
  },
  "userdoc": {
    "kind": "user",
    "methods": {},
    "version": 1
  }
}