{
  "contractName": "VotingTmp",
  "abi": [
    {
      "anonymous": false,
      "inputs": [
        {
          "indexed": true,
          "internalType": "address",
          "name": "previousOwner",
          "type": "address"
        },
        {
          "indexed": true,
          "internalType": "address",
          "name": "newOwner",
          "type": "address"
        }
      ],
      "name": "OwnershipTransferred",
      "type": "event"
    },
    {
      "anonymous": false,
      "inputs": [
        {
          "indexed": false,
          "internalType": "uint256",
          "name": "proposalId",
          "type": "uint256"
        }
      ],
      "name": "ProposalRegistered",
      "type": "event"
    },
    {
      "anonymous": false,
      "inputs": [
        {
          "indexed": false,
          "internalType": "address",
          "name": "voter",
          "type": "address"
        },
        {
          "indexed": false,
          "internalType": "uint256",
          "name": "proposalId",
          "type": "uint256"
        }
      ],
      "name": "Voted",
      "type": "event"
    },
    {
      "anonymous": false,
      "inputs": [
        {
          "indexed": false,
          "internalType": "address",
          "name": "voterAddress",
          "type": "address"
        }
      ],
      "name": "VoterRegistered",
      "type": "event"
    },
    {
      "anonymous": false,
      "inputs": [
        {
          "indexed": false,
          "internalType": "enum VotingTmp.WorkflowStatus",
          "name": "previousStatus",
          "type": "uint8"
        },
        {
          "indexed": false,
          "internalType": "enum VotingTmp.WorkflowStatus",
          "name": "newStatus",
          "type": "uint8"
        }
      ],
      "name": "WorkflowStatusChange",
      "type": "event"
    },
    {
      "inputs": [],
      "name": "owner",
      "outputs": [
        {
          "internalType": "address",
          "name": "",
          "type": "address"
        }
      ],
      "stateMutability": "view",
      "type": "function"
    },
    {
      "inputs": [],
      "name": "renounceOwnership",
      "outputs": [],
      "stateMutability": "nonpayable",
      "type": "function"
    },
    {
      "inputs": [
        {
          "internalType": "address",
          "name": "newOwner",
          "type": "address"
        }
      ],
      "name": "transferOwnership",
      "outputs": [],
      "stateMutability": "nonpayable",
      "type": "function"
    },
    {
      "inputs": [],
      "name": "winningProposalID",
      "outputs": [
        {
          "internalType": "uint256",
          "name": "",
          "type": "uint256"
        }
      ],
      "stateMutability": "view",
      "type": "function"
    },
    {
      "inputs": [],
      "name": "workflowStatus",
      "outputs": [
        {
          "internalType": "enum VotingTmp.WorkflowStatus",
          "name": "",
          "type": "uint8"
        }
      ],
      "stateMutability": "view",
      "type": "function"
    },
    {
      "inputs": [
        {
          "internalType": "address",
          "name": "_addr",
          "type": "address"
        }
      ],
      "name": "getVoter",
      "outputs": [
        {
          "components": [
            {
              "internalType": "bool",
              "name": "isRegistered",
              "type": "bool"
            },
            {
              "internalType": "bool",
              "name": "hasVoted",
              "type": "bool"
            },
            {
              "internalType": "uint128",
              "name": "votedProposalId",
              "type": "uint128"
            }
          ],
          "internalType": "struct VotingTmp.Voter",
          "name": "",
          "type": "tuple"
        }
      ],
      "stateMutability": "view",
      "type": "function"
    },
    {
      "inputs": [
        {
          "internalType": "uint256",
          "name": "_id",
          "type": "uint256"
        }
      ],
      "name": "getOneProposal",
      "outputs": [
        {
          "components": [
            {
              "internalType": "string",
              "name": "description",
              "type": "string"
            },
            {
              "internalType": "uint256",
              "name": "voteCount",
              "type": "uint256"
            }
          ],
          "internalType": "struct VotingTmp.Proposal",
          "name": "",
          "type": "tuple"
        }
      ],
      "stateMutability": "view",
      "type": "function"
    },
    {
      "inputs": [
        {
          "internalType": "address",
          "name": "_addr",
          "type": "address"
        }
      ],
      "name": "addVoter",
      "outputs": [],
      "stateMutability": "nonpayable",
      "type": "function"
    },
    {
      "inputs": [
        {
          "internalType": "string",
          "name": "_desc",
          "type": "string"
        }
      ],
      "name": "addProposal",
      "outputs": [],
      "stateMutability": "nonpayable",
      "type": "function"
    },
    {
      "inputs": [
        {
          "internalType": "uint128",
          "name": "_id",
          "type": "uint128"
        }
      ],
      "name": "setVote",
      "outputs": [],
      "stateMutability": "nonpayable",
      "type": "function"
    },
    {
      "inputs": [],
      "name": "startProposalsRegistering",
      "outputs": [],
      "stateMutability": "nonpayable",
      "type": "function"
    },
    {
      "inputs": [],
      "name": "endProposalsRegistering",
      "outputs": [],
      "stateMutability": "nonpayable",
      "type": "function"
    },
    {
      "inputs": [],
      "name": "startVotingSession",
      "outputs": [],
      "stateMutability": "nonpayable",
      "type": "function"
    },
    {
      "inputs": [],
      "name": "endVotingSession",
      "outputs": [],
      "stateMutability": "nonpayable",
      "type": "function"
    },
    {
      "inputs": [],
      "name": "tallyVotes",
      "outputs": [],
      "stateMutability": "nonpayable",
      "type": "function"
    }
  ],
  "bytecode": "0x60806040523480156200001157600080fd5b5062000032620000266200003860201b60201c565b6200004060201b60201c565b62000104565b600033905090565b60008060009054906101000a900473ffffffffffffffffffffffffffffffffffffffff169050816000806101000a81548173ffffffffffffffffffffffffffffffffffffffff021916908373ffffffffffffffffffffffffffffffffffffffff1602179055508173ffffffffffffffffffffffffffffffffffffffff168173ffffffffffffffffffffffffffffffffffffffff167f8be0079c531659141344cd1fd0a4f28419497f9722a3daafe3b4186f6b6457e060405160405180910390a35050565b6125ab80620001146000396000f3fe608060405234801561001057600080fd5b50600436106100f55760003560e01c8063a7bfab1611610097578063d4f50f9811610066578063d4f50f98146101ee578063ee74c6781461021e578063f2fde38b14610228578063f4ab9adf14610244576100f5565b8063a7bfab16146101b2578063bdc01431146101bc578063c7038a4e146101da578063c88af42f146101e4576100f5565b8063715018a6116100d3578063715018a61461013c5780638da5cb5b14610146578063a1edffa214610164578063a2788cce14610182576100f5565b806329e5c5fd146100fa5780632fdae3c514610116578063378a217814610132575b600080fd5b610114600480360381019061010f9190611504565b610260565b005b610130600480360381019061012b9190611596565b610631565b005b61013a6108b4565b005b61014461099a565b005b61014e6109ae565b60405161015b9190611624565b60405180910390f35b61016c6109d7565b60405161017991906116b6565b60405180910390f35b61019c60048036038101906101979190611707565b6109ea565b6040516101a99190611810565b60405180910390f35b6101ba610b51565b005b6101c4610c37565b6040516101d19190611841565b60405180910390f35b6101e2610c3d565b005b6101ec610db8565b005b61020860048036038101906102039190611888565b610e9d565b6040516102159190611921565b60405180910390f35b610226611005565b005b610242600480360381019061023d9190611888565b6110eb565b005b61025e60048036038101906102599190611888565b61116e565b005b600460003373ffffffffffffffffffffffffffffffffffffffff1673ffffffffffffffffffffffffffffffffffffffff16815260200190815260200160002060000160009054906101000a900460ff166102ef576040517f08c379a00000000000000000000000000000000000000000000000000000000081526004016102e690611999565b60405180910390fd5b600360058111156103035761030261163f565b5b600260009054906101000a900460ff1660058111156103255761032461163f565b5b14610365576040517f08c379a000000000000000000000000000000000000000000000000000000000815260040161035c90611a2b565b60405180910390fd5b60011515600460003373ffffffffffffffffffffffffffffffffffffffff1673ffffffffffffffffffffffffffffffffffffffff16815260200190815260200160002060000160019054906101000a900460ff161515036103fb576040517f08c379a00000000000000000000000000000000000000000000000000000000081526004016103f290611a97565b60405180910390fd5b600380549050816fffffffffffffffffffffffffffffffff1610610454576040517f08c379a000000000000000000000000000000000000000000000000000000000815260040161044b90611b03565b60405180910390fd5b80600460003373ffffffffffffffffffffffffffffffffffffffff1673ffffffffffffffffffffffffffffffffffffffff16815260200190815260200160002060000160026101000a8154816fffffffffffffffffffffffffffffffff02191690836fffffffffffffffffffffffffffffffff1602179055506001600460003373ffffffffffffffffffffffffffffffffffffffff1673ffffffffffffffffffffffffffffffffffffffff16815260200190815260200160002060000160016101000a81548160ff0219169083151502179055506003816fffffffffffffffffffffffffffffffff168154811061054e5761054d611b23565b5b9060005260206000209060020201600101600081548092919061057090611b81565b919050555060036001548154811061058b5761058a611b23565b5b9060005260206000209060020201600101546003826fffffffffffffffffffffffffffffffff16815481106105c3576105c2611b23565b5b90600052602060002090600202016001015411156105f557806fffffffffffffffffffffffffffffffff166001819055505b7f4d99b957a2bc29a30ebd96a7be8e68fe50a3c701db28a91436490b7d53870ca43382604051610626929190611c04565b60405180910390a150565b600460003373ffffffffffffffffffffffffffffffffffffffff1673ffffffffffffffffffffffffffffffffffffffff16815260200190815260200160002060000160009054906101000a900460ff166106c0576040517f08c379a00000000000000000000000000000000000000000000000000000000081526004016106b790611999565b60405180910390fd5b600160058111156106d4576106d361163f565b5b600260009054906101000a900460ff1660058111156106f6576106f561163f565b5b14610736576040517f08c379a000000000000000000000000000000000000000000000000000000000815260040161072d90611c79565b60405180910390fd5b60405160200161074590611cbf565b60405160208183030381529060405280519060200120828260405160200161076e929190611d1b565b60405160208183030381529060405280519060200120036107c4576040517f08c379a00000000000000000000000000000000000000000000000000000000081526004016107bb90611db1565b60405180910390fd5b6107cc611461565b82828080601f016020809104026020016040519081016040528093929190818152602001838380828437600081840152601f19601f8201169050808301925050505050505081600001819052506003819080600181540180825580915050600190039060005260206000209060020201600090919091909150600082015181600001908161085a9190612002565b506020820151816001015550507f92e393e9b54e2f801d3ea4beb0c5e71a21cc34a5d34b77d0fb8a3aa1650dc18f600160038054905061089a91906120d4565b6040516108a79190611841565b60405180910390a1505050565b6108bc611317565b600460058111156108d0576108cf61163f565b5b600260009054906101000a900460ff1660058111156108f2576108f161163f565b5b14610932576040517f08c379a00000000000000000000000000000000000000000000000000000000081526004016109299061217a565b60405180910390fd5b6005600260006101000a81548160ff021916908360058111156109585761095761163f565b5b02179055507f0a97a4ee45751e2abf3e4fc8946939630b11b371ea8ae39ccdc3056e98f5cc3f6004600560405161099092919061219a565b60405180910390a1565b6109a2611317565b6109ac6000611395565b565b60008060009054906101000a900473ffffffffffffffffffffffffffffffffffffffff16905090565b600260009054906101000a900460ff1681565b6109f2611461565b600460003373ffffffffffffffffffffffffffffffffffffffff1673ffffffffffffffffffffffffffffffffffffffff16815260200190815260200160002060000160009054906101000a900460ff16610a81576040517f08c379a0000000000000000000000000000000000000000000000000000000008152600401610a7890611999565b60405180910390fd5b60038281548110610a9557610a94611b23565b5b9060005260206000209060020201604051806040016040529081600082018054610abe90611e2f565b80601f0160208091040260200160405190810160405280929190818152602001828054610aea90611e2f565b8015610b375780601f10610b0c57610100808354040283529160200191610b37565b820191906000526020600020905b815481529060010190602001808311610b1a57829003601f168201915b505050505081526020016001820154815250509050919050565b610b59611317565b60036005811115610b6d57610b6c61163f565b5b600260009054906101000a900460ff166005811115610b8f57610b8e61163f565b5b14610bcf576040517f08c379a0000000000000000000000000000000000000000000000000000000008152600401610bc690611a2b565b60405180910390fd5b6004600260006101000a81548160ff02191690836005811115610bf557610bf461163f565b5b02179055507f0a97a4ee45751e2abf3e4fc8946939630b11b371ea8ae39ccdc3056e98f5cc3f60036004604051610c2d92919061219a565b60405180910390a1565b60015481565b610c45611317565b60006005811115610c5957610c5861163f565b5b600260009054906101000a900460ff166005811115610c7b57610c7a61163f565b5b14610cbb576040517f08c379a0000000000000000000000000000000000000000000000000000000008152600401610cb290612235565b60405180910390fd5b6001600260006101000a81548160ff02191690836005811115610ce157610ce061163f565b5b0217905550610cee611461565b6040518060400160405280600781526020017f47454e4553495300000000000000000000000000000000000000000000000000815250816000018190525060038190806001815401808255809150506001900390600052602060002090600202016000909190919091506000820151816000019081610d6d9190612002565b506020820151816001015550507f0a97a4ee45751e2abf3e4fc8946939630b11b371ea8ae39ccdc3056e98f5cc3f60006001604051610dad92919061219a565b60405180910390a150565b610dc0611317565b60016005811115610dd457610dd361163f565b5b600260009054906101000a900460ff166005811115610df657610df561163f565b5b14610e36576040517f08c379a0000000000000000000000000000000000000000000000000000000008152600401610e2d906122c7565b60405180910390fd5b60028060006101000a81548160ff02191690836005811115610e5b57610e5a61163f565b5b02179055507f0a97a4ee45751e2abf3e4fc8946939630b11b371ea8ae39ccdc3056e98f5cc3f60016002604051610e9392919061219a565b60405180910390a1565b610ea561147b565b600460003373ffffffffffffffffffffffffffffffffffffffff1673ffffffffffffffffffffffffffffffffffffffff16815260200190815260200160002060000160009054906101000a900460ff16610f34576040517f08c379a0000000000000000000000000000000000000000000000000000000008152600401610f2b90611999565b60405180910390fd5b600460008373ffffffffffffffffffffffffffffffffffffffff1673ffffffffffffffffffffffffffffffffffffffff1681526020019081526020016000206040518060600160405290816000820160009054906101000a900460ff161515151581526020016000820160019054906101000a900460ff161515151581526020016000820160029054906101000a90046fffffffffffffffffffffffffffffffff166fffffffffffffffffffffffffffffffff166fffffffffffffffffffffffffffffffff16815250509050919050565b61100d611317565b600260058111156110215761102061163f565b5b600260009054906101000a900460ff1660058111156110435761104261163f565b5b14611083576040517f08c379a000000000000000000000000000000000000000000000000000000000815260040161107a90612359565b60405180910390fd5b6003600260006101000a81548160ff021916908360058111156110a9576110a861163f565b5b02179055507f0a97a4ee45751e2abf3e4fc8946939630b11b371ea8ae39ccdc3056e98f5cc3f600260036040516110e192919061219a565b60405180910390a1565b6110f3611317565b600073ffffffffffffffffffffffffffffffffffffffff168173ffffffffffffffffffffffffffffffffffffffff1603611162576040517f08c379a0000000000000000000000000000000000000000000000000000000008152600401611159906123eb565b60405180910390fd5b61116b81611395565b50565b611176611317565b6000600581111561118a5761118961163f565b5b600260009054906101000a900460ff1660058111156111ac576111ab61163f565b5b146111ec576040517f08c379a00000000000000000000000000000000000000000000000000000000081526004016111e39061247d565b60405180910390fd5b60011515600460008373ffffffffffffffffffffffffffffffffffffffff1673ffffffffffffffffffffffffffffffffffffffff16815260200190815260200160002060000160009054906101000a900460ff16151503611282576040517f08c379a0000000000000000000000000000000000000000000000000000000008152600401611279906124e9565b60405180910390fd5b6001600460008373ffffffffffffffffffffffffffffffffffffffff1673ffffffffffffffffffffffffffffffffffffffff16815260200190815260200160002060000160006101000a81548160ff0219169083151502179055507fb6be2187d059cc2a55fe29e0e503b566e1e0f8c8780096e185429350acffd3dd8160405161130c9190611624565b60405180910390a150565b61131f611459565b73ffffffffffffffffffffffffffffffffffffffff1661133d6109ae565b73ffffffffffffffffffffffffffffffffffffffff1614611393576040517f08c379a000000000000000000000000000000000000000000000000000000000815260040161138a90612555565b60405180910390fd5b565b60008060009054906101000a900473ffffffffffffffffffffffffffffffffffffffff169050816000806101000a81548173ffffffffffffffffffffffffffffffffffffffff021916908373ffffffffffffffffffffffffffffffffffffffff1602179055508173ffffffffffffffffffffffffffffffffffffffff168173ffffffffffffffffffffffffffffffffffffffff167f8be0079c531659141344cd1fd0a4f28419497f9722a3daafe3b4186f6b6457e060405160405180910390a35050565b600033905090565b604051806040016040528060608152602001600081525090565b604051806060016040528060001515815260200160001515815260200160006fffffffffffffffffffffffffffffffff1681525090565b600080fd5b600080fd5b60006fffffffffffffffffffffffffffffffff82169050919050565b6114e1816114bc565b81146114ec57600080fd5b50565b6000813590506114fe816114d8565b92915050565b60006020828403121561151a576115196114b2565b5b6000611528848285016114ef565b91505092915050565b600080fd5b600080fd5b600080fd5b60008083601f84011261155657611555611531565b5b8235905067ffffffffffffffff81111561157357611572611536565b5b60208301915083600182028301111561158f5761158e61153b565b5b9250929050565b600080602083850312156115ad576115ac6114b2565b5b600083013567ffffffffffffffff8111156115cb576115ca6114b7565b5b6115d785828601611540565b92509250509250929050565b600073ffffffffffffffffffffffffffffffffffffffff82169050919050565b600061160e826115e3565b9050919050565b61161e81611603565b82525050565b60006020820190506116396000830184611615565b92915050565b7f4e487b7100000000000000000000000000000000000000000000000000000000600052602160045260246000fd5b6006811061167f5761167e61163f565b5b50565b60008190506116908261166e565b919050565b60006116a082611682565b9050919050565b6116b081611695565b82525050565b60006020820190506116cb60008301846116a7565b92915050565b6000819050919050565b6116e4816116d1565b81146116ef57600080fd5b50565b600081359050611701816116db565b92915050565b60006020828403121561171d5761171c6114b2565b5b600061172b848285016116f2565b91505092915050565b600081519050919050565b600082825260208201905092915050565b60005b8381101561176e578082015181840152602081019050611753565b60008484015250505050565b6000601f19601f8301169050919050565b600061179682611734565b6117a0818561173f565b93506117b0818560208601611750565b6117b98161177a565b840191505092915050565b6117cd816116d1565b82525050565b600060408301600083015184820360008601526117f0828261178b565b915050602083015161180560208601826117c4565b508091505092915050565b6000602082019050818103600083015261182a81846117d3565b905092915050565b61183b816116d1565b82525050565b60006020820190506118566000830184611832565b92915050565b61186581611603565b811461187057600080fd5b50565b6000813590506118828161185c565b92915050565b60006020828403121561189e5761189d6114b2565b5b60006118ac84828501611873565b91505092915050565b60008115159050919050565b6118ca816118b5565b82525050565b6118d9816114bc565b82525050565b6060820160008201516118f560008501826118c1565b50602082015161190860208501826118c1565b50604082015161191b60408501826118d0565b50505050565b600060608201905061193660008301846118df565b92915050565b600082825260208201905092915050565b7f596f75277265206e6f74206120766f7465720000000000000000000000000000600082015250565b600061198360128361193c565b915061198e8261194d565b602082019050919050565b600060208201905081810360008301526119b281611976565b9050919050565b7f566f74696e672073657373696f6e20686176656e74207374617274656420796560008201527f7400000000000000000000000000000000000000000000000000000000000000602082015250565b6000611a1560218361193c565b9150611a20826119b9565b604082019050919050565b60006020820190508181036000830152611a4481611a08565b9050919050565b7f596f75206861766520616c726561647920766f74656400000000000000000000600082015250565b6000611a8160168361193c565b9150611a8c82611a4b565b602082019050919050565b60006020820190508181036000830152611ab081611a74565b9050919050565b7f50726f706f73616c206e6f7420666f756e640000000000000000000000000000600082015250565b6000611aed60128361193c565b9150611af882611ab7565b602082019050919050565b60006020820190508181036000830152611b1c81611ae0565b9050919050565b7f4e487b7100000000000000000000000000000000000000000000000000000000600052603260045260246000fd5b7f4e487b7100000000000000000000000000000000000000000000000000000000600052601160045260246000fd5b6000611b8c826116d1565b91507fffffffffffffffffffffffffffffffffffffffffffffffffffffffffffffffff8203611bbe57611bbd611b52565b5b600182019050919050565b6000819050919050565b6000611bee611be9611be4846114bc565b611bc9565b6116d1565b9050919050565b611bfe81611bd3565b82525050565b6000604082019050611c196000830185611615565b611c266020830184611bf5565b9392505050565b7f50726f706f73616c7320617265206e6f7420616c6c6f77656420796574000000600082015250565b6000611c63601d8361193c565b9150611c6e82611c2d565b602082019050919050565b60006020820190508181036000830152611c9281611c56565b9050919050565b50565b6000611ca960008361193c565b9150611cb482611c99565b600082019050919050565b60006020820190508181036000830152611cd881611c9c565b9050919050565b82818337600083830152505050565b6000611cfa838561193c565b9350611d07838584611cdf565b611d108361177a565b840190509392505050565b60006020820190508181036000830152611d36818486611cee565b90509392505050565b7f566f7573206e6520706f7576657a20706173206e65207269656e2070726f706f60008201527f7365720000000000000000000000000000000000000000000000000000000000602082015250565b6000611d9b60238361193c565b9150611da682611d3f565b604082019050919050565b60006020820190508181036000830152611dca81611d8e565b9050919050565b7f4e487b7100000000000000000000000000000000000000000000000000000000600052604160045260246000fd5b7f4e487b7100000000000000000000000000000000000000000000000000000000600052602260045260246000fd5b60006002820490506001821680611e4757607f821691505b602082108103611e5a57611e59611e00565b5b50919050565b60008190508160005260206000209050919050565b60006020601f8301049050919050565b600082821b905092915050565b600060088302611ec27fffffffffffffffffffffffffffffffffffffffffffffffffffffffffffffffff82611e85565b611ecc8683611e85565b95508019841693508086168417925050509392505050565b6000611eff611efa611ef5846116d1565b611bc9565b6116d1565b9050919050565b6000819050919050565b611f1983611ee4565b611f2d611f2582611f06565b848454611e92565b825550505050565b600090565b611f42611f35565b611f4d818484611f10565b505050565b5b81811015611f7157611f66600082611f3a565b600181019050611f53565b5050565b601f821115611fb657611f8781611e60565b611f9084611e75565b81016020851015611f9f578190505b611fb3611fab85611e75565b830182611f52565b50505b505050565b600082821c905092915050565b6000611fd960001984600802611fbb565b1980831691505092915050565b6000611ff28383611fc8565b9150826002028217905092915050565b61200b82611734565b67ffffffffffffffff81111561202457612023611dd1565b5b61202e8254611e2f565b612039828285611f75565b600060209050601f83116001811461206c576000841561205a578287015190505b6120648582611fe6565b8655506120cc565b601f19841661207a86611e60565b60005b828110156120a25784890151825560018201915060208501945060208101905061207d565b868310156120bf57848901516120bb601f891682611fc8565b8355505b6001600288020188555050505b505050505050565b60006120df826116d1565b91506120ea836116d1565b925082820390508181111561210257612101611b52565b5b92915050565b7f43757272656e7420737461747573206973206e6f7420766f74696e672073657360008201527f73696f6e20656e64656400000000000000000000000000000000000000000000602082015250565b6000612164602a8361193c565b915061216f82612108565b604082019050919050565b6000602082019050818103600083015261219381612157565b9050919050565b60006040820190506121af60008301856116a7565b6121bc60208301846116a7565b9392505050565b7f5265676973746572696e672070726f706f73616c732063616e7420626520737460008201527f6172746564206e6f770000000000000000000000000000000000000000000000602082015250565b600061221f60298361193c565b915061222a826121c3565b604082019050919050565b6000602082019050818103600083015261224e81612212565b9050919050565b7f5265676973746572696e672070726f706f73616c7320686176656e742073746160008201527f7274656420796574000000000000000000000000000000000000000000000000602082015250565b60006122b160288361193c565b91506122bc82612255565b604082019050919050565b600060208201905081810360008301526122e0816122a4565b9050919050565b7f5265676973746572696e672070726f706f73616c73207068617365206973206e60008201527f6f742066696e6973686564000000000000000000000000000000000000000000602082015250565b6000612343602b8361193c565b915061234e826122e7565b604082019050919050565b6000602082019050818103600083015261237281612336565b9050919050565b7f4f776e61626c653a206e6577206f776e657220697320746865207a65726f206160008201527f6464726573730000000000000000000000000000000000000000000000000000602082015250565b60006123d560268361193c565b91506123e082612379565b604082019050919050565b60006020820190508181036000830152612404816123c8565b9050919050565b7f566f7465727320726567697374726174696f6e206973206e6f74206f70656e2060008201527f7965740000000000000000000000000000000000000000000000000000000000602082015250565b600061246760238361193c565b91506124728261240b565b604082019050919050565b600060208201905081810360008301526124968161245a565b9050919050565b7f416c726561647920726567697374657265640000000000000000000000000000600082015250565b60006124d360128361193c565b91506124de8261249d565b602082019050919050565b60006020820190508181036000830152612502816124c6565b9050919050565b7f4f776e61626c653a2063616c6c6572206973206e6f7420746865206f776e6572600082015250565b600061253f60208361193c565b915061254a82612509565b602082019050919050565b6000602082019050818103600083015261256e81612532565b905091905056fea2646970667358221220e8b87df8ab059338183a762f114d459827fd3d0ba97ac1ebba6a27fcab34e2c964736f6c63430008110033",
  "immutableReferences": {},
  "source": "// SPDX-License-Identifier: MIT\n\npragma solidity 0.8.17;\nimport \"../node_modules/@openzeppelin/contracts/access/Ownable.sol\";\n\n/// @title Voting smart contract\n/// @author Victor G\n/// @notice Voters add proposals & vote for their favorite, limited to group of users controled by owner\n/// @dev Voting is Ownable from openzeppelin\ncontract VotingTmp is Ownable {\n\n    uint public winningProposalID;\n\n    struct Voter {\n        bool isRegistered;\n        bool hasVoted;\n        uint128 votedProposalId;\n    }\n\n    struct Proposal {\n        string description;\n        uint voteCount;\n    }\n\n    enum  WorkflowStatus {\n        RegisteringVoters,\n        ProposalsRegistrationStarted,\n        ProposalsRegistrationEnded,\n        VotingSessionStarted,\n        VotingSessionEnded,\n        VotesTallied\n    }\n\n    WorkflowStatus public workflowStatus;\n    Proposal[] proposalsArray;\n    mapping (address => Voter) voters;\n\n    event VoterRegistered(address voterAddress);\n    event WorkflowStatusChange(WorkflowStatus previousStatus, WorkflowStatus newStatus);\n    event ProposalRegistered(uint proposalId);\n    event Voted (address voter, uint proposalId);\n\n    modifier onlyVoters() {\n        require(voters[msg.sender].isRegistered, \"You're not a voter\");\n        _;\n    }\n\n    // on peut faire un modifier pour les tats\n\n    // ::::::::::::: GETTERS ::::::::::::: //\n\n    /// @notice Get Voter by address\n    /// @dev Only registered voters\n    /// @param _addr Voter's address\n    /// @return Voter\n    function getVoter(address _addr) external onlyVoters view returns (Voter memory) {\n        return voters[_addr];\n    }\n\n    /// @notice Get Proposal by index\n    /// @dev Only registered voters\n    /// @param _id Proposal's index\n    /// @return Proposal\n    function getOneProposal(uint _id) external onlyVoters view returns (Proposal memory) {\n        return proposalsArray[_id];\n    }\n\n    // ::::::::::::: REGISTRATION ::::::::::::: //\n\n    /// @notice Register Voter by address\n    /// @dev Only owner\n    /// @param _addr Voter's address\n    function addVoter(address _addr) external onlyOwner {\n        require(workflowStatus == WorkflowStatus.RegisteringVoters, 'Voters registration is not open yet');\n        require(voters[_addr].isRegistered != true, 'Already registered');\n\n        voters[_addr].isRegistered = true;\n        emit VoterRegistered(_addr);\n    }\n\n    // ::::::::::::: PROPOSAL ::::::::::::: //\n\n    /// @notice Add proposal\n    /// @dev Only registered voters\n    /// @param _desc Proposal's description\n    function addProposal(string calldata _desc) external onlyVoters {\n        require(workflowStatus == WorkflowStatus.ProposalsRegistrationStarted, 'Proposals are not allowed yet');\n        require(keccak256(abi.encode(_desc)) != keccak256(abi.encode(\"\")), 'Vous ne pouvez pas ne rien proposer'); // facultatif\n        // voir que desc est different des autres\n\n        Proposal memory proposal;\n        proposal.description = _desc;\n        proposalsArray.push(proposal);\n        emit ProposalRegistered(proposalsArray.length-1);\n    }\n\n    // ::::::::::::: VOTE ::::::::::::: //\n\n    /// @notice Vote for proposal\n    /// @dev Only registered voters\n    /// @param _id Proposal's index\n    function setVote( uint128 _id) external onlyVoters {\n        require(workflowStatus == WorkflowStatus.VotingSessionStarted, 'Voting session havent started yet');\n        require(voters[msg.sender].hasVoted != true, 'You have already voted');\n        require(_id < proposalsArray.length, 'Proposal not found'); // pas oblig, et pas besoin du >0 car uint\n\n        voters[msg.sender].votedProposalId = _id;\n        voters[msg.sender].hasVoted = true;\n        proposalsArray[_id].voteCount++;\n\n        if (proposalsArray[_id].voteCount > proposalsArray[winningProposalID].voteCount) {\n            winningProposalID = _id;\n        }\n\n        emit Voted(msg.sender, _id);\n    }\n\n    // ::::::::::::: STATE ::::::::::::: //\n\n    /// @notice Start proposals registering\n    /// @dev Only owner\n    /// @dev Only if workflowStatus is RegisteringVoters (0)\n    function startProposalsRegistering() external onlyOwner {\n        require(workflowStatus == WorkflowStatus.RegisteringVoters, 'Registering proposals cant be started now');\n        workflowStatus = WorkflowStatus.ProposalsRegistrationStarted;\n\n        Proposal memory proposal;\n        proposal.description = \"GENESIS\";\n        proposalsArray.push(proposal);\n\n        emit WorkflowStatusChange(WorkflowStatus.RegisteringVoters, WorkflowStatus.ProposalsRegistrationStarted);\n    }\n\n    /// @notice End proposals registering\n    /// @dev Only owner\n    /// @dev Only if workflowStatus is ProposalsRegistrationStarted (1)\n    function endProposalsRegistering() external onlyOwner {\n        require(workflowStatus == WorkflowStatus.ProposalsRegistrationStarted, 'Registering proposals havent started yet');\n        workflowStatus = WorkflowStatus.ProposalsRegistrationEnded;\n        emit WorkflowStatusChange(WorkflowStatus.ProposalsRegistrationStarted, WorkflowStatus.ProposalsRegistrationEnded);\n    }\n\n    /// @notice Start voting session\n    /// @dev Only owner\n    /// @dev Only if workflowStatus is ProposalsRegistrationEnded (2)\n    function startVotingSession() external onlyOwner {\n        require(workflowStatus == WorkflowStatus.ProposalsRegistrationEnded, 'Registering proposals phase is not finished');\n        workflowStatus = WorkflowStatus.VotingSessionStarted;\n        emit WorkflowStatusChange(WorkflowStatus.ProposalsRegistrationEnded, WorkflowStatus.VotingSessionStarted);\n    }\n\n    /// @notice End voting session\n    /// @dev Only owner\n    /// @dev Only if workflowStatus is VotingSessionStarted (3)\n    function endVotingSession() external onlyOwner {\n        require(workflowStatus == WorkflowStatus.VotingSessionStarted, 'Voting session havent started yet');\n        workflowStatus = WorkflowStatus.VotingSessionEnded;\n        emit WorkflowStatusChange(WorkflowStatus.VotingSessionStarted, WorkflowStatus.VotingSessionEnded);\n    }\n\n\n    /// @notice Tally votes\n    /// @dev Only owner\n    /// @dev Only if workflowStatus is VotingSessionEnded (4)\n   function tallyVotes() external onlyOwner {\n      require(workflowStatus == WorkflowStatus.VotingSessionEnded, \"Current status is not voting session ended\");\n\n       workflowStatus = WorkflowStatus.VotesTallied;\n       emit WorkflowStatusChange(WorkflowStatus.VotingSessionEnded, WorkflowStatus.VotesTallied);\n    }\n\n}\n",
  "sourcePath": "/Users/gabou/Sites/alyra-techcare-dev/truffle/contracts/_Voting_tmp.sol",
  "compiler": {
    "name": "solc",
    "version": "0.8.17+commit.8df45f5f.Emscripten.clang"
  },
  "schemaVersion": "3.4.10",
  "updatedAt": "2022-12-10T17:20:56.458Z",
  "devdoc": {
    "author": "Victor G",
    "details": "Voting is Ownable from openzeppelin",
    "kind": "dev",
    "methods": {
      "addProposal(string)": {
        "details": "Only registered voters",
        "params": {
          "_desc": "Proposal's description"
        }
      },
      "addVoter(address)": {
        "details": "Only owner",
        "params": {
          "_addr": "Voter's address"
        }
      },
      "endProposalsRegistering()": {
        "details": "Only ownerOnly if workflowStatus is ProposalsRegistrationStarted (1)"
      },
      "endVotingSession()": {
        "details": "Only ownerOnly if workflowStatus is VotingSessionStarted (3)"
      },
      "getOneProposal(uint256)": {
        "details": "Only registered voters",
        "params": {
          "_id": "Proposal's index"
        },
        "returns": {
          "_0": "Proposal"
        }
      },
      "getVoter(address)": {
        "details": "Only registered voters",
        "params": {
          "_addr": "Voter's address"
        },
        "returns": {
          "_0": "Voter"
        }
      },
      "owner()": {
        "details": "Returns the address of the current owner."
      },
      "renounceOwnership()": {
        "details": "Leaves the contract without owner. It will not be possible to call `onlyOwner` functions anymore. Can only be called by the current owner. NOTE: Renouncing ownership will leave the contract without an owner, thereby removing any functionality that is only available to the owner."
      },
      "setVote(uint128)": {
        "details": "Only registered voters",
        "params": {
          "_id": "Proposal's index"
        }
      },
      "startProposalsRegistering()": {
        "details": "Only ownerOnly if workflowStatus is RegisteringVoters (0)"
      },
      "startVotingSession()": {
        "details": "Only ownerOnly if workflowStatus is ProposalsRegistrationEnded (2)"
      },
      "tallyVotes()": {
        "details": "Only ownerOnly if workflowStatus is VotingSessionEnded (4)"
      },
      "transferOwnership(address)": {
        "details": "Transfers ownership of the contract to a new account (`newOwner`). Can only be called by the current owner."
      }
    },
    "title": "Voting smart contract",
    "version": 1
  },
  "userdoc": {
    "kind": "user",
    "methods": {
      "addProposal(string)": {
        "notice": "Add proposal"
      },
      "addVoter(address)": {
        "notice": "Register Voter by address"
      },
      "endProposalsRegistering()": {
        "notice": "End proposals registering"
      },
      "endVotingSession()": {
        "notice": "End voting session"
      },
      "getOneProposal(uint256)": {
        "notice": "Get Proposal by index"
      },
      "getVoter(address)": {
        "notice": "Get Voter by address"
      },
      "setVote(uint128)": {
        "notice": "Vote for proposal"
      },
      "startProposalsRegistering()": {
        "notice": "Start proposals registering"
      },
      "startVotingSession()": {
        "notice": "Start voting session"
      },
      "tallyVotes()": {
        "notice": "Tally votes"
      }
    },
    "notice": "Voters add proposals & vote for their favorite, limited to group of users controled by owner",
    "version": 1
  }
}